:020000040800F2
:1000000000EE00200D020008DDD3000821A2000848
:1000100065D2000839100008FB2701080000000025
:10002000000000000000000000000000210E010898
:10003000992D0008000000006DD90008550F010837
:1000400027020008270200082702000835E0000800
:1000500027020008270200082937000827020008A5
:10006000E5370008270200082702000827020008D9
:1000700027020008270200082702000827020008BC
:1000800027020008270200082702000827020008AC
:10009000ED2701083D10000827020008270200088C
:1000A000270200082702000827020008270200088C
:1000B000551101082702000827020008270200083E
:1000C000270200082702000827020008270200086C
:1000D000270200082702000827020008270200085C
:1000E0002702000891DF0008270200082702000805
:1000F000270200082702000827020008270200083C
:1001000027020008CDEB000827020008270200089C
:100110002702000827020008C11101081512010872
:10012000270200082702000827020008270200080B
:1001300000F002F800F05AF80AA090E8000C82449F
:100140008344AAF10107DA4501D100F04FF8AFF27C
:10015000090EBAE80F0013F0010F18BFFB1A43F0A5
:1001600001031847A4890400C48904000A444FF01D
:10017000000C10F8013B13F0070408BF10F8014B06
:100180001D1108BF10F8015B641E05D010F8016B4B
:10019000641E01F8016BF9D113F0080F1EBF10F8AF
:1001A000014BAD1C0C1B09D16D1E58BF01F801CBD2
:1001B000FAD505E014F8016B01F8016B6D1EF9D555
:1001C0009142D6D37047000000230024002500266A
:1001D000103A28BF78C1FBD8520728BF30C148BFAA
:1001E0000B6070471FB51FBD10B510BD00F0E7F9DB
:1001F0001146FFF7F7FF27F03FFD00F005FA03B4C3
:10020000FFF7F2FF03BC00F009FA0000094880473D
:1002100009480047FEE7FEE7FEE7FEE7FEE7FEE7E8
:10022000FEE7FEE7FEE7FEE704480549054A064B00
:1002300070470000750F01083101000800E600203A
:1002400000EE002000E8002000E8002040EA010362
:1002500010B59B070FD1042A0DD310C808C9121F6F
:100260009C42F8D020BA19BA884201D9012010BDA9
:100270004FF0FF3010BD1AB1D30703D0521C07E076
:10028000002010BD10F8013B11F8014B1B1B07D1DA
:1002900010F8013B11F8014B1B1B01D1921EF1D14B
:1002A000184610BD40EA0103024630B59B0710D145
:1002B0004FF0013400E008C208C91D1B9D4315EA38
:1002C000C41FF8D013F0FF0102F8011B0DD01B0A68
:1002D000F8E711F8013B002B02F8013B05D011F8BB
:1002E000013B002B02F8013BF3D130BD10B5431C9C
:1002F00002E010F8011B71B18107FAD14FF0013211
:1003000002C88C1A8C4314EAC211F9D0C01A0A062A
:1003100003D0C01E10BDC01A10BD0A0401D0801E3B
:1003200010BD0902FCD0401E10BD032A40F23080EF
:1003300010F0030C00F0158011F8013BBCF1020F26
:10034000624498BF11F801CB00F8013B38BF11F8A7
:10035000013BA2F1040298BF00F801CB38BF00F8BE
:10036000013B11F0030300F06780083AC0F00880F9
:1003700051F8043B083A51F804CBA0E80810F5E71F
:10038000121D5CBF51F8043B40F8043BAFF3008002
:10039000D20724BF11F8013B11F801CB48BF11F877
:1003A000012B24BF00F8013B00F801CB48BF00F847
:1003B000012B7047431A28BF9A427FF6B6AF032A33
:1003C0001044114440F2268010F0030F1EBF11F8B4
:1003D000013D521E00F8013D10F0030F7FF4F6AF0F
:1003E00011F0030300F09F80083AC0F00B8051F831
:1003F000043D083A51F804CD40F8043D40F804CDDE
:10040000FFF7F3BF121D5CBF51F8043D40F8043DF7
:10041000AFF30080D20724BF11F8013D11F801CDE0
:1004200048BF11F8012C24BF00F8013D00F801CDB0
:1004300048BF00F8012C704710B5203AC0F00B807F
:10044000B1E81850203AA0E81850B1E81850A0E8D8
:100450001850BFF4F5AF5FEA027C24BFB1E8185032
:10046000A0E8185044BF18C918C0BDE810405FEAA2
:10047000827C24BF51F8043B40F8043B08BF70471E
:10048000D20728BF31F8023B48BF11F8012B28BF23
:1004900020F8023B48BF00F8012B704702F0FF0331
:1004A00043EA032242EA024200F069B84FF0000238
:1004B00000B5134694469646203922BFA0E80C505A
:1004C000A0E80C50B1F12001BFF4F7AF090728BF35
:1004D000A0E80C5048BF0CC05DF804EB890028BFB1
:1004E00040F8042B08BF704748BF20F8022B11F0DA
:1004F000804F18BF00F8012B704770477047704756
:10050000431A28BF9A427FF697AF104410F0030FAA
:1005100011441EBF11F8013D521E00F8013D10F0BC
:10052000030F7FF4F6AF103AC0F00A8010B531E93E
:100530001850103A20E91850BFF4F9AFBDE8104048
:10054000530724BF31E9081020E9081044BF51F8CF
:10055000043D40F8043D12F0030F08BF7047D20776
:1005600028BF31F8023D48BF11F8012C28BF20F800
:10057000023D48BF00F8012C70474FF000020429EB
:10058000C0F0128010F0030C3FF492AFCCF1040CD9
:10059000BCF1020F18BF00F8012BA8BF20F8022BF6
:1005A000A1EB0C01FFF784BF5FEAC17C24BF00F818
:1005B000012B00F8012B48BF00F8012B704775464E
:1005C00000F028F8AE4605006946534620F00700C3
:1005D000854618B020B5FFF727FEBDE820404FF054
:1005E00000064FF000074FF000084FF0000B21F01D
:1005F0000701AC46ACE8C009ACE8C009ACE8C009EA
:10060000ACE8C0098D4670470446AFF30080204631
:10061000FFF7F5FD004870479CE5002001491820D0
:10062000ABBEFEE7260002007047002800DC404217
:10063000704700002DE9F0410120002100263A4CCE
:100640002488DFF8E4C0ACF1040CBCF800C044EA34
:100650000C44DFF8D8C094FBFCF80CFB18454FF4B1
:10066000616495FBF4F4DFF8C8C08CF800404FF4E7
:10067000616495FBF4FC04FB1C573C2497FBF4F4E9
:10068000DFF8ACC08CF80140274C2488DFF898C014
:10069000ACF1040CBCF800C044EA0C44DFF88CC098
:1006A00094FBFCF420440FE0A0F5B770491C002235
:1006B00007E0B0F5B77F00DA05E0A0F26D10491C45
:1006C000521C032AF5DB00BFB0F5B77FECDA4FEA26
:1006D000E17C01EB9C7C4FEAAC0CB1EB8C0C01D0C3
:1006E000002300E0012300220AE0761C03EB8304D0
:1006F00004EBC304DFF83CC06444A45C001B521C40
:1007000003EB830404EBC304DFF828C06444A45C57
:100710008442EADBDFF818C08CF805108CF804601E
:100720008CF80300BDE8F081086C004080510100A6
:100730007B0100205B01002038B545680446014676
:10074000284612F078F800282AD02068304A0F286E
:1007500019D006DC0B2824D00C2810D00E2851D13B
:100760002FE0112802D028284CD145E09268002AB9
:1007700016D02146284601B0BDE83040104721463A
:1007800028465268F7E7284605F04EFC0090406E78
:100790000468684605F092FC002C01D02846A0476A
:1007A00038BD284605F040FC0090683005F09CFB01
:1007B000009803216C3005F09FFB684605F07EFC35
:1007C00020E0E168486809680D2902D0202913D18A
:1007D00005E0002810DD28461DF077F806E0002827
:1007E00004DD2846BDE838401DF06FB82846BDE856
:1007F000384002211DF07FB8E06818B90021284672
:1008000000F0D1F92046BDE8384012F03FBC0000AE
:10081000340700202DE9FF410AAF70CF0027039570
:100820008DE8D00000F003F804B0BDE8F081F0B529
:1008300085B00DF1280CBCE8F0004FF0000C8DE8FD
:10084000F01000F025F805B0F0BDF0B5044685B015
:100850008069B4F90850668A0027CDE90265CDE9C0
:1008600000170490B4F90C00B4F91060C118B4F981
:100870000A00B4F90E50104433462A4600F008F836
:100880000546616800F0C4F905B02846F0BD0000D7
:10089000F0B585B00C46DDE90D514C31DFF850C0A4
:1008A000DDE90A67CDE902C12146CDE9006712F012
:1008B0003DFB040018D005F0B7FB10222946049038
:1008C00012F0BEF9049830220A493430FFF7B4FD23
:1008D000084D04990C3D2868486604A805F0EEFB15
:1008E000286841682046884705B02046F0BD0000D2
:1008F0003907000840070020F0B5044680688B499E
:1009000089B051F82050606800287DD0052804D0B7
:1009100006287AD0122879D1AEE0E86900284FD0B5
:1009200095E80E008DE80F0004F110010FC908F0E2
:1009300083FF002655F8260007F070FEA169E869DC
:100940000A1A216901446069304406F0C5FAA169B8
:10095000E8690A1A21690144E069801B06F0BCFAC3
:10096000E169E8690A1A616901442069304406F0C6
:1009700065FBE169E8690A1A61690144A069801BA5
:1009800006F05CFB761C022ED4DBA86807F046FE5E
:10099000E069E9696669431A20694218521E3144C8
:1009A000801C06F019FCE169E869A2690B1A61690B
:1009B0000144101A401C921E06F00EFCEE6913E072
:1009C0005FF0000655F8260007F028FEE069831B5B
:1009D000A069821B606981192069304406F0D4FA4D
:1009E000761C022EEEDB0226D5E90301CDE90001DB
:1009F0006169E06908444310A069891C821B206971
:100A0000304406F035FA02E089E012E08AE0D5E9E8
:100A10000501CDE90001E36960690121184401EB9A
:100A20006001A0699B1E821B2069304406F020FAF9
:100A300078E0206805F0F8FA0490206813F0F2FEE0
:100A400040B1A06808B1002008E00498006F28B108
:100A5000012003E00498406F00B10220049901EBEB
:100A60008000C56E04A805F029FB00231A4628461D
:100A7000216805F023FF55E0206805F0D5FA0490C1
:100A8000866EEEB3B0F95C70A168D1B3032942D091
:100A90005FF0000100EB8101406D0C6C07F0D4FDAC
:100AA000204607F0BBFD05A806F05EFFBDF8141058
:100AB000A88B0144ADF81410BDF81810081AADF851
:100AC0001800BDF81600801CADF81600BDF81A001D
:100AD000801EADF81A0004985E30B0F90220B0F91B
:100AE000001005A807F077FC04A805F0E7FA02203B
:100AF00007F0ECFD304605F097FA3A4605A901E00B
:100B00000BE006E0079006F019F807A805F0D6FA02
:100B100008E00121BEE70221BCE704A8F6E720684F
:100B200013F0A2FA09B00020F0BD0000FC47040851
:100B30001CB50446002000902346054A2B21019055
:100B4000044805F0ADFD04490860084600681CBD76
:100B50005D1E02085436030878020020044A034947
:100B6000116004494A6A48621046704770070020C5
:100B7000340700204007002000294FF0100101D069
:100B800011F0E3BE11F03BBE38B50D46040009D0AC
:100B900005F04AFA00904565684605F08FFA204650
:100BA00012F05DFF38BD4FF480720029114601D06C
:100BB00011F0CBBE11F023BE08B50023009300F066
:100BC00001F808BD70B516460C4605461946304674
:100BD000049A05F05BFE024621462846BDE87040B7
:100BE00000F03EB838B50C46054605F01DFA0090F9
:100BF000064984654166684605F060FA284613F0A8
:100C000033FA284612F02BFF38BD00007007002091
:100C10002DE9FF410E4605004FF001041CD005F000
:100C200003FA0190876E01A8009705F047FA314654
:100C3000684609F09FF978B100980024B84208D0BE
:100C4000284605F0F1F901900099816601A805F0A8
:100C500035FA284612F003FF04B02046BDE8F081C3
:100C6000F8B515460C46060013D005F0DDF90090E6
:100C7000032C0BD800EB84006C3005F035F900989C
:100C800000EB8400C566304612F0E9FE684605F0C8
:100C900015FAF8BD2DE9FF410120A0490870A049CF
:100CA0000870A04807F0D0FC4FF6FF7007F0B6FCC4
:100CB0009D4800782A2844D00EF068FA9A490870B6
:100CC000084600782A2804D00846007804B0BDE819
:100CD000F08196480EF02AF993490870084600788A
:100CE0002A2802D008460078F0E79049B1F842106F
:100CF00008040EF0D1FF8C490870084600782A28B5
:100D000002D008460078E1E74FF400600EF0AAF840
:100D100085490870084600782A2802D008460078DD
:100D2000D4E700200EF0D2FF7F4908700846007813
:100D30002A2802D008460078C8E77D49002025F01F
:100D40006DFF3222AA217BA005F0D6FE8348FFF773
:100D500005FF12F0ABFA074640F60100002102221F
:100D60001E23CDE90072CDE90210282264219620CD
:100D7000FFF75DFD7A4908606A4979480068FFF726
:100D800003FF78A176480068FFF742FF12F08EFA61
:100D900007464FF40260002102221E23CDE90072B3
:100DA000CDE90210282264214FF49670FFF73FFD31
:100DB0006E4908605B496D480068FFF7E5FE6CA16D
:100DC0006A480068FFF724FF12F070FA07466A4984
:100DD00013F008F801E006F09FF95048007818B1C8
:100DE0004F4800780028F6D15D48006812F082F97B
:100DF0005E48006812F07EF90020594908605B499E
:100E0000086005F005FC45480078002873D1484982
:100E100025F004FF59A15B4825F0C8FF5A49087026
:100E200008460078002868D10A22052157A005F05D
:100E300063FE3E4991F84010584A52F8210005F0EF
:100E4000DBFD1E22052156A005F056FE3748007D29
:100E5000801C012101FA00F43448C089401C604321
:100E600032490A7A0121914000FB01F5284628F019
:100E700095F907464FF0934128F046F806460621BB
:100E8000304605F07AFD4BA005F0B6FD3222052173
:100E90004AA005F031FE03214C48008805F045FDCD
:100EA0004BA005F0A9FD462205214BA005F024FE2C
:100EB0001E49486B0A2105F038FD5A2205214AA037
:100EC00005F01AFE1949B1F84200052105F02DFD83
:100ED0006E22052146A005F00FFE144991F8280066
:100EE000022105F022FD002246A148A007F06CFA7D
:100EF0000D480078EAE60CE0FFE7002241A147A098
:100F000007F062FA0021084625F088FE1E490870A5
:100F100000E000BF04480078D8E600001C00002074
:100F20001D0000205035030856010020080D002048
:100F30004C0D0020D097D090D093D0A0D0A3D097C4
:100F4000D09AD09020D0A120534420D09AD090D0D5
:100F5000A0D0A2D0AB203F2000000000F90800087C
:100F600040000020D094D0900000000044000020F9
:100F7000D09DD095D0A20000A529020830003A00EB
:100F800000000000A41100205A010020204341521B
:100F9000442054595045203A2000000020000020F1
:100FA0002053445F434152442053495A45203A203C
:100FB00020000000204D4259544500002053454375
:100FC000544F522053495A45203A200054010020E2
:100FD00020204259544500002052524F445543545A
:100FE00020534E203A20000020524341203A200056
:100FF000204D414E55464143545552455220494497
:10100000203A20004D657373616765005344206387
:10101000617264206973204F4B21000053442063A8
:10102000617264206973206E6F7420696E697469DF
:10103000616C697A6500000000BFFEE710B5012011
:101040000349087000F0A0FA00F070FA10BD00002B
:101050001500002070B5FE4880780C287ED2DFE8AD
:1010600000F07D0625367D62C1FEFD7DFCFB4FF460
:101070002070F84908600620087102204871F6487F
:101080000178F4488171F4484178F248C171F2481E
:10109000C178F0480172F0480179EE484172EE489B
:1010A0004179EC48817200F011FB28E2E848407970
:1010B000E9490870E64880794870E548C079C87009
:1010C000E348007A0871E248407A487117E240F23A
:1010D0008220E049086002204871E0480178DD483C
:1010E0008171DF480178DB48C171DE480178D94859
:1010F0000172DD480178D7484172DC480068010E72
:10110000D4480173D9480068010CD248C172D7484D
:101110000068C1B2CF4881720820CE4908710846E4
:1011200000F0D4FAEBE14FF08040008C40F010006A
:101130004FF0804108840846008C40F0010008848C
:101140000120C9490860CA480068002849D0C94838
:10115000007828B1C7480078012800E0CEE124D10A
:1011600011200BF05BFC002400E0641CC2488442A8
:10117000FBDBBE200BF052FC04200BF031FCBF481F
:1011800000880BF02DFC01200BF02AFCF0200BF066
:1011900027FC00200BF024FC00200BF021FC022097
:1011A000B44908700020B64908700020B54908808D
:1011B0004FF40161AE48006812F08EF80546B2495E
:1011C0002846FFF70FFD284612F0D8FE40F6110121
:1011D000A748006812F080F80546AC492846FFF79A
:1011E00001FD8CE1A348007818B1A24800780128DD
:1011F00024D111200BF012FC002400E0641C9E4856
:101200008442FBDBBE200BF009FC04200BF0E8FB62
:101210009A4800880BF0E4FB01200BF0E1FBF02082
:101220000BF0DEFB00200BF0DBFB00200BF0D8FB0B
:1012300002209049087000209149087000209149CF
:10124000088083484079854908600846006800287E
:101250005DD04FF0804003E04FE14DE14BE1C0E055
:10126000008B40F004004FF08041088308468089DD
:1012700040F0020088812320888505200887744873
:10128000C07978490860086800EBD0714C1020469E
:1012900027F06CFF06467E4927F036FE7D49086040
:1012A00073480068002831D040F613017048006888
:1012B00012F012F80546284612F018FB40F6140109
:1012C0006B48006812F008F80546284611F081FFC7
:1012D00040F617016648006811F0FEFF05466148B8
:1012E000016828460CF00DFA284612F070FF40F60F
:1012F00016015F48006811F0EFFF05465948016884
:1013000028460FF01DFB284611F070FF59E05048A9
:101310008079534908604FF08040008B20F0040032
:101320004FF0804108830846808920F002008881C0
:101330004B48008800EB80004FF47A71A1EB40002D
:10134000C90688854648008800EB800040F2CA3113
:10135000A1EB4000490708874548006888B340F67C
:1013600017014348006811F0B7FF0546284612F000
:10137000BDFA40F616013E48006811F0ADFF054683
:10138000284611F026FF40F613013948006811F095
:10139000A3FF05463248016828460CF0B2F92846FA
:1013A00012F015FF40F614013148006811F094FF67
:1013B00005462B48016828460FF0C2FA284611F06E
:1013C00015FF2B48006858B140F6180128480068FE
:1013D00011F082FF054621480168284601F00BFC08
:1013E0008DE04FF08040008C20F010004FF08041E5
:1013F00008840846008C20F001000884002026495B
:1014000008702649086018490860194800680028D3
:1014100070D01848007818B11648007801284DD1CE
:1014200011200BF0FBFA002400E0641C12488442F7
:10143000FBDBBE200BF0F2FA04200BF0D1FA0F48D0
:1014400000880BF0CDFA01200BF0CAFAF02027E05B
:101450005CE100204CE10020750100200006002026
:101460000406002008060020100600201864004032
:101470001C0600205801002020BF0200AE01002001
:101480005901002024140040C92B0208F908000863
:10149000000048420C060020140600201806002018
:1014A0000BF09EFA00200BF09BFA00200BF098FA4C
:1014B00002201749087000201649087000201649BC
:1014C000088040F611011548006811F005FF054637
:1014D00013492846FFF786FB284612F04FFD4FF4CC
:1014E00001610E48006811F0F7FE05460D492846D7
:1014F000FFF778FB03E002E001E000E000BF00BF7F
:101500000948006840F002000749086070BD00000B
:101510005801002059010020241400401C0600201E
:10152000C92B0208F90800081464004000B51348EC
:10153000807B02280BD003DC38B1012815D105E0EF
:10154000032805D00B2810D103E00FE00EE00DE0DA
:101550000CE04FF422700A49086001200871022053
:101560004871084600F0B2F800E000BF00BF05482F
:10157000006840F010000349086000BD5CE10020F5
:101580004CE10020146400404D4901EB0011096852
:1015900001F0020102295AD0494901EB0011896882
:1015A00000EB4002474B03EB82021171444901EB0F
:1015B000001189680A0A00EB400103EB81014A71BE
:1015C0003F4901EB001189680A0C00EB400103EB75
:1015D00081018A713A4901EB00118968090E00EB1B
:1015E000400203EB8202D171354901EB0011C96859
:1015F000CAB200EB400103EB81010A72304901EBF2
:101600000011C9680A0A00EB400103EB81014A722C
:101610002B4901EB0011C9680A0C00EB400103EBF8
:1016200081018A72264901EB0011C968090E00EB9D
:10163000400203EB8202D172214901EB001149689B
:1016400001F00F0100EB400203EB8202D1701C4954
:1016500001EB0011096840F2FF7202EA515100EB00
:101660004002184B23F82210154901EB001149687C
:10167000090A00EB400203EB8202917030B112497B
:10168000096821F01001104A116005E00E4909684F
:1016900021F002010C4A116040B10B49091F096891
:1016A00041F02001084A121F116007E0064908397D
:1016B000096841F02001044A083A116070470000AF
:1016C000B06500405CE100201464004010B50246A3
:1016D00000233048006800F08060B0F1806F01D1D5
:1016E000002113E02B48006800F00060B0F1006FAB
:1016F00001D101210AE02748006800F08050B0F1D4
:10170000805F01D1022101E0022010BD1088440554
:10171000214800EB011004601F4800EB01104068F5
:1017200020F00F041C4800EB011044601A4800EB45
:101730000110406814792043174C04EB01146060D9
:10174000107A0406D07944EA0044907944EA0020F3
:10175000547940EA0403104800EB01108360107BC9
:101760000406D07A44EA0044907A44EA0020547A8D
:1017700040EA0403084800EB0110C360064800EB90
:101780000110006840F00104034800EB0110046000
:101790000020BAE708640040806500407CB5214C19
:1017A0000546216831F8220F4A8D10440880488888
:1017B000CA8D10444880284606F0C6F82168498C36
:1017C000ADF800104618284608F070FA3044401E64
:1017D000ADF8040006F004F92168898CADF8021018
:1017E0000844401EADF80600684612F0AFFE04E063
:1017F000284603F011F912F027FE0028F8D10A2D2F
:1018000004D0BDF804002168401C4884206830F8EA
:10181000221F428D891A01804188C28D891A418018
:101820007CBD0000880600200A480B490068038937
:1018300090F8702053430B80438953434B80838936
:101840005B1C53435B1E8B80C089401C5043401E71
:10185000C880704788060020B80A002070B52A2585
:101860004FF4803400E0641E24B180200DF09CF819
:101870000028F8D014B90325284670BD40F2FF5067
:101880000CF044FF2846F8E72DE9F04106462A27E8
:101890004748456B01E04648456B15F0450FFAD0C7
:1018A00015F0040F06D0032704200CF02FFF384654
:1018B000BDE8F08115F0010F05D0012701200CF0E3
:1018C00025FF3846F4E70DF069F8B04202D0102742
:1018D0003846EDE740F2FF500CF018FF00200DF005
:1018E00043F904463348044201D13846E0E714F096
:1018F000004F01D01C20DBE714F0804F01D00920FD
:10190000D6E714F0005F01D00A20D1E714F0805F21
:1019100001D00B20CCE714F0006F01D00C20C7E7FA
:1019200014F0806F01D00D20C2E714F0807F01D049
:101930000E20BDE714F4000F01D00F20B8E714F417
:10194000800F01D01020B3E714F4001F01D0112044
:10195000AEE714F4801F01D01220A9E714F4002F81
:1019600001D01320A4E714F4802F01D014209FE7A6
:1019700014F4003F01D015209AE714F4803F01D001
:10198000162095E714F4004F01D0172090E714F4C7
:10199000804F01D018208BE714F4005F01D019208C
:1019A00086E714F0080F01D01A2081E738467FE758
:1019B0000080014008E0FFFD70B52A250F48446B08
:1019C00001E00E48446B14F0450FFAD014F0040FF8
:1019D00005D0032504200CF099FE284670BD14F0B4
:1019E000010F05D0012501200CF090FE2846F5E7F7
:1019F00040F2FF500CF08AFE2846EFE700800140DD
:101A000070B52A250B48446B01E00A48446B14F07A
:101A1000450FFAD014F0040F05D0032504200CF074
:101A200075FE284670BD40F2FF500CF06FFE284650
:101A3000F8E70000008001402DE9F04106460F461E
:101A40004FF02A082248456B01E02148456B15F00C
:101A5000450FFAD015F0040F07D04FF0030804200B
:101A60000CF054FE4046BDE8F08115F0010F06D0A1
:101A70004FF0010801200CF049FE4046F3E70CF05E
:101A80008DFFB04203D04FF010084046EBE740F224
:101A9000FF500CF03BFE00200DF066F8044614F4F5
:101AA000604F03D1200C38804046DCE714F4005F1F
:101AB00001D01320D7E714F4804F01D01020D2E7D3
:101AC00014F4004F01D00F20CDE74046CBE70000D3
:101AD0000080014070B52A264FF480350F48446BD2
:101AE00002E06D1E0D48446B14F0450F01D1002D2E
:101AF000F7D115B114F0040F05D0032604200CF023
:101B000005FE304670BD14F0400F05D02A26402057
:101B10000CF0FCFD3046F5E73046F3E7008001406D
:101B20001CB50020009001900548064A0821036872
:101B3000054804F0B5FD05490860084600681CBD6D
:101B400080020020492D0208743503086402002039
:101B500010B586B011F0AAFB0446654840F60701AF
:101B600000220223CDE90043CDE9022104904FF485
:101B700082734FF4CD720F213C2011F00DF95D49B5
:101B800008605D495B48006811F040F9412040F66B
:101B900018020023CDE90320029305900320554944
:101BA00009684B231A46CDE900104621642008F04D
:101BB000FCFB5249086052A256495048006808F0A0
:101BC00031FB55494D48006808F081FC3E20382122
:101BD00040F60E020023CDE90232CDE904100320C5
:101BE0004449096841234222CDE9001000216420C4
:101BF00008F0DBFB4949086049A24D4947480068A5
:101C000008F010FB44494548006808F060FC0821D2
:101C10004248006808F089FC3D20382140F6150252
:101C20000023CDE90232CDE90410032031490968CF
:101C300041234222CDE900100021142008F0B5FB19
:101C40003C4908603CA23F493A48006808F0EAFA7B
:101C500031493848006808F03AFC082135480068E6
:101C600008F063FC3E20382140F617020023CDE93E
:101C70000232CDE9041003201E49096841234222A3
:101C8000CDE900104621142008F08FFB2E49086092
:101C90002EA232492C48006808F0C4FA1E492A488E
:101CA000006808F014FC08212748006808F03DFC93
:101CB000302040F616020023CDE903200293059060
:101CC00003200C4909683A231A46CDE90010C821BF
:101CD000142008F06AFB2249086014A22149204818
:101CE000006808F09FFA0348006806B010BD0000C5
:101CF00009370208800200208766DF009402002076
:101D0000D091D183D0B4D0B8D0BBD18CD0BDD0B815
:101D1000D0BA0000085E0308503503088402002092
:101D2000D0A2D0B0D0B9D0BCD0B5D18000000000D6
:101D3000A0F2030888020020D092D180D0B5D0BC98
:101D4000D18F0000587B03088C020020534420D020
:101D5000BAD0B0D180D182D0B0000000C81604083B
:101D6000900200208CE0030870B586B072B60020A7
:101D700006F014FC8648006800287CD111F096FA21
:101D8000064684484FF4006100220223CDE9006337
:101D9000CDE9022104904FF482734FF4CD720F21EC
:101DA0003C2010F0F9FF7A4908607B4978480068C8
:101DB00011F02CF83E20382140F617020023CDE91F
:101DC0000232CDE9041003207149096841234222FF
:101DD000CDE900100021F02008F0E7FA6F49086013
:101DE0006F496E48006808F072FB6EA270496B483C
:101DF000006808F017FA08216848006808F095FBA9
:101E00003E20382140F604020023CDE90232CDE91C
:101E1000041003205E49096841234222CDE90010E5
:101E200000214FF4AA7008F0C0FA624908605C49CA
:101E30006048006808F04BFB5FA261495D4800689C
:101E400008F0F0F908215B48006808F06EFB3E20BE
:101E5000382140F615020023CDE90232CDE9041005
:101E600003204B49096841234222CDE900105A2141
:101E70004FF4AA7000E07FE008F097FA514908603B
:101E800047495048006808F022FB4FA252494D488C
:101E9000006808F0C7F908214A48006808F045FBC7
:101EA000302040F605020023CDE90320029305907F
:101EB0000320374909683A231A46CDE90010C821A2
:101EC0004FF4AA7008F071FA4449086037A24449F7
:101ED0004248006808F0A6F911F0E8F906463020FB
:101EE00040F616020023CDE903200293059003205B
:101EF0003A231A46D621CDE90060002008F055FAB1
:101F00003849086029A238493648006808F08AF93B
:101F100011F0CCF90646182040F618020023CDE94E
:101F2000032002930590032022231A460F21CDE9B6
:101F300000600A2008F039FA2C4908602C48008813
:101F40002B49091F098840EA01452A480088294988
:101F5000091F098840EA0144A54206D913A226496F
:101F60002248006808F05EF90AE010A223491F48E1
:101F7000006808F057F903E00548006812F027F9F7
:101F800000F096FE01201E49087062B606B070BDD2
:101F900038030020B54302088080FF00580300206A
:101FA00050350308D0A4D0BED182D0BE00000000BE
:101FB00078CE030840030020546F7563680000006A
:101FC000B404040844030020D09AD180D0B0D18159
:101FD000D0BAD0B80000000050BA0308480300206F
:101FE0003CA803085403002000920308500300207B
:101FF000086C00401C280040306703089C620308FE
:10200000AD0100201CB50020009001900548064A53
:1020100008210368054804F043FB054908600846A9
:1020200000681CBD800200205D460208583C030881
:102030001C0600201CB50020009001900548064AAF
:1020400007210368054804F02BFB05490860084692
:1020500000681CBD8002002031320208943B030856
:10206000EC05002010B5044614F0704F02D009486A
:10207000044201D104B104E040F20E2106A023F095
:1020800046F814F0805F02D00F48046001E00F486A
:10209000446010BD0000F0EF53544D3332463130F0
:1020A000785F5374645065726970685F44726976D2
:1020B00065725C7372635C73746D33326631307851
:1020C0005F646D612E630000040402400000024062
:1020D00070B504460D46244884422AD02248143064
:1020E000844226D020482830844222D01E483C30EA
:1020F00084421ED01C48503084421AD01A486430A2
:10210000844216D018487830844212D0174884424E
:102110000FD01648143084420BD014482830844223
:1021200007D012483C30844203D0104850308442DB
:1021300000D104E040F229110DA022F0E8FF0DB11A
:10214000012D00D104E04FF4957109A022F0DFFFCA
:1021500025B1206840F00100206004E020684FF6BF
:10216000FE710840206070BD080002400804024073
:1021700053544D3332463130785F53746450657236
:102180006970685F4472697665725C7372635C73D0
:10219000746D3332663130785F646D612E63000098
:1021A00070B5044600250026012C7DD0022C7BD082
:1021B000042C79D0082C7ED0102C7CD0202C7AD006
:1021C000402C78D0802C76D0B4F5807F73D0B4F5D5
:1021D000007F70D0B4F5806F6DD0B4F5006F6AD019
:1021E000B4F5805F67D0B4F5005F64D0B4F5804F7C
:1021F00061D0B4F5004F5ED0B4F5803F5BD0B4F54C
:10220000003F58D0B4F5802F55D0B4F5002F52D0F0
:10221000B4F5801F4FD0B4F5001F4CD0B4F5800F3B
:1022200049D0B4F5000F46D0B4F1807F43D0B4F16B
:10223000007F40D0B4F1806F3DD0B4F1006F3AD050
:102240002748844237D0A4F18050801E33D0801EAE
:1022500031D0001F2FD008382DD010382BD0203887
:1022600029D0403827D01E48FF30844223D01D4853
:10227000844220D01C4884421DD01C4884421AD07D
:10228000B4F1102F17D04FEAF030844213D0184821
:10229000844210D0174884420DD0174884420AD097
:1022A0001648844207D000E005E01548844202D079
:1022B0001448844200D104E040F2B71112A022F089
:1022C00026FF14F0805F02D01B48066801E01B481F
:1022D0000668264201D0012500E00025284670BD91
:1022E000010000100002001000040010000800109F
:1022F00000400010008000100000011000000210DB
:10230000000004100000081053544D3332463130A1
:10231000785F5374645065726970685F447269765F
:1023200065725C7372635C73746D333266313078DE
:102330005F646D612E6300000004024000000240F3
:1023400070B504460D461646274884422AD02648D2
:102350001430844226D024482830844222D0224897
:102360003C3084421ED02048503084421AD01E484F
:102370006430844216D01C487830844212D01B4806
:1023800084420FD01948143084420BD017482830AB
:10239000844207D015483C30844203D01348503063
:1023A000844200D104E040F2491111A022F0AFFEB6
:1023B00035F00E0001D105B104E04FF4A5710CA079
:1023C00022F0A5FE0EB1012E00D104E040F24B1127
:1023D00007A022F09CFE1EB120682843206002E086
:1023E0002068A843206070BD080002400804024035
:1023F00053544D3332463130785F537464506572B4
:102400006970685F4472697665725C7372635C734D
:10241000746D3332663130785F646D612E63000015
:1024200070B505460C4600265E4885422AD05D48B8
:102430001430854226D05B482830854222D0594846
:102440003C3085421ED05748503085421AD05548FE
:102450006430854216D053487830854212D05248B5
:1024600085420FD05048143085420BD04E4828305A
:10247000854207D04C483C30854203D04A48503012
:10248000854200D103E0CF2148A022F040FEA068A1
:10249000102801D0A06800B903E0D02143A022F0A9
:1024A00036FEE06820B1E068B0F5803F00D203E07E
:1024B000D1213EA022F02BFE2069402801D02069C6
:1024C00000B903E0D22139A022F021FE6069802802
:1024D00001D0606900B903E0D32134A022F017FED7
:1024E000A06938B1A069B0F5807F03D0A069B0F5CC
:1024F000007F00D103E0D4212CA022F008FEE06987
:1025000038B1E069B0F5806F03D0E069B0F5006FD5
:1025100000D103E0D52125A022F0F9FD206A202872
:1025200001D0206A00B903E0D62120A022F0EFFDFF
:10253000606AB0F5405F09D0606AB0F5005F05D011
:10254000606AB0F5805F01D0606A00B903E0D7210E
:1025500016A022F0DCFDA06AB0F5804F01D0A06A81
:1025600000B903E0D82111A022F0D1FD2E6847F672
:10257000F0708643216AA0680843216908436169B5
:102580000843A1690843E1690843616A0843A16AF5
:10259000084306432E60E06868602068A8606068B1
:1025A000E86070BD080002400804024053544D33F7
:1025B00032463130785F5374645065726970685F79
:1025C0004472697665725C7372635C73746D3332E6
:1025D000663130785F646D612E63000030B58BB07A
:1025E00005460C461348FFF73DFD00211248FFF752
:1025F0006FFD12480090019500200290A008039002
:1026000000200490802005908000069080000790B4
:10261000002008904FF40050099000200A9069466D
:102620000548FFF7FDFE01210348FFF751FD0BB000
:1026300030BD000000F000104404024080800140E2
:1026400030B58BB005460C461348FFF70BFD002153
:102650001248FFF73DFD12480090019510200290AE
:10266000A008039000200490802005908000069030
:1026700080000790002008904FF40050099000203F
:102680000A9069460548FFF7CBFE01210348FFF792
:102690001FFD0BB030BD000000F0001044040240EC
:1026A000808001402DE9FC4100282ED0112916D050
:1026B000132910D080460C4603F0B6FC009000F0C1
:1026C000DEFA0546684603F0F9FC20461EF08AFD56
:1026D000064600241CE0BDE8FC4100F082BABDE8DB
:1026E000FC4100F067B92146404600F0CBFA01906A
:1026F00000781EF077FDC7B201A803F0DFFCB742F7
:1027000005D12146404600F076FABDE8FC81641C04
:10271000AC42E8DBF9E7F8B50C46050013D0002C15
:1027200011D003F081FC0090C66B684603F0C6FC34
:102730002046FDF7DBFD421C2146304603F0E2FC5B
:10274000284611F08CF9F8BD2DE9FF414568044693
:10275000284603F069FC0190D0F8886001A803F0D6
:10276000ADFC0EB1012700E000272146284610F0FD
:1027700062F8002855D020680F2856D006DC0B28B8
:1027800062D00C2843D00E282AD173E0112839D00A
:10279000212802D0262823D116E0E06841680029CC
:1027A0001EDD00680D281BD1304609F0F6FA00281E
:1027B00006DB304609F0F1FA0146284600F01BFA24
:1027C000284600F077F86EE0E068012809D00A2872
:1027D00002D00B286AD111E00A21284611F0FFF936
:1027E00064E0304609F0D9FA00285FDB304609F092
:1027F000D4FA0146284600F0FEF954E0284600F0DD
:1028000059F853E0FFB9E068007A90BB4EE0E06809
:1028100048B1007A08B1012100E00221284611F0F8
:10282000DEF9BDE8FF810321F8E72E46284603F0D4
:10283000FBFB0290D0F88400056802A803F03EFC80
:102840000DB13046A84731E0284603F0EDFB00907B
:10285000C06B03F097FC0098D0F8880010F04AFC99
:102860000098D0F8940003F017FB684603F026FCAC
:102870001CE010E0E0684168002917DD01680929C3
:102880000DD00A2912D01B2910D0202903D02846A8
:10289000FFF708FFC5E7284600F098F806E010F0BB
:1028A00035FDB04202D1284611F068FB204610F0F9
:1028B000EDFBB6E738B5040011D003F0B5FB00908E
:1028C000D0F8880040B110F015FC00990020C1F844
:1028D0008800204611F0C3F8684603F0EFFB38BDCE
:1028E000F0B585B0B0F90850468A84690296CDE902
:1028F00003540027CDE90017B0F90C10B0F91050BF
:10290000B0F90E40B0F90A00194410442B46224693
:1029100000F002F805B0F0BD2DE9FF410C461D4660
:10292000DDE90D71DDE90B366C31DFF880E0DDF8B3
:1029300028C0CDE900C3CDE902E14FF0FF332146C5
:1029400010F0F4FA04002DD003F06EFB102239468B
:10295000009010F075F900983822154980F88C60C5
:102960004C30FDF769FD124E0098361F3168C0F8F3
:102970008410002180F89010C586204600F05EF992
:10298000684603F09BFB03F0FAFB0546204603F084
:102990004BFB0090C563684603F090FB30684168CC
:1029A0002046884704B02046BDE8F081492700084A
:1029B0000008002010B5044600F006F9010000D020
:1029C000411E2046BDE8104000F015B92DE9F14F39
:1029D0009EB01E9800287CD003F026FB08901E981D
:1029E00010F08FFD1A900898B0F9367090F890109A
:1029F0001991C16B179190F88C90B0F93410079130
:102A000000F03DF9824608980BACB0F88E10159195
:102A1000B0F982100A91C16C0991D0E90012CDE998
:102A20000512D0F894B0002100EB8102126D44F839
:102A30002120491C0329F7D300210EAD00EB8102B0
:102A4000D26D45F82120491C0329F7D3002111AE8E
:102A500000EB8102126F46F82120491C0329F7D3AD
:102A600008A803F02BFB1E9810F0DDFC03F0DCFA45
:102A70001490D0F8008014A803F020FB4FEA2840FF
:102A800042420FFA88F0414205A805F0A4FC5FEA33
:102A9000897003D5BDF81600C01B01E0BDF81A000F
:102AA000ADF816001E9810F0BEFC01461A98CDE94C
:102AB000000702220292BDF91630BDF91420002051
:102AC00009F0FFF880465FEAC97009D040461999BD
:102AD00000E076E009F078FB0121404609F0BCFAFD
:102AE000002708E03946179803F0A9FB0146404645
:102AF00008F0ABFF7F1C5745F4D30027394654F844
:102B00002720404609F0CDFA7F1C032FF6D300247E
:102B1000214655F82420404609F0DAFB641C032CBA
:102B2000F6D30024214656F82420404609F031FB14
:102B3000641C032CF6D35FEA0B001ED003F074FA7A
:102B400030F8025B00240126169011E0169804F07C
:102B5000070100EBD40006FA01F10078084201D029
:102B6000012200E000222146404609F0C2FA641C1E
:102B7000AC42EBDB16A803F0A1FA4046159909F028
:102B8000E6FA4046099909F0A0FA40460A9909F088
:102B90008FFB404611F0F2F940461E9909F0E9FA20
:102BA0004046079909F028FB01211E9811F017F8FB
:102BB0001E9803F039FA0890C0F8888008A803F03E
:102BC0007DFA1FB0BDE8F08F38B5002438B103F0AE
:102BD0002BFA0090B0F93440684603F06FFA2046B3
:102BE00038BD10B50446FFF7EFFF411C2046BDE895
:102BF0001040AFF3008038B50C46050019D003F043
:102C000013FA009000F03BF800B1401E844200DD52
:102C100004460098B0F93410A1420BD0848668466F
:102C200003F04CFA284610F01AFF0421284610F051
:102C3000D6FF38BD684603F041FA38BDF8B5044602
:102C400003F0F2F901460090B0F9380010B9C86CF1
:102C500004F03AFF0099CA6AB1F98030126800EBBB
:102C600043001618084611F062FC0546684603F05A
:102C700025FA32462946204611F02FFAF8BDC06BDE
:102C800003F0D1BA38B50D46002403F0CDF9009019
:102C9000C06B294603F0D3FA0546684603F00EFAE6
:102CA0001DB1284603F0C0F90446204638BD000097
:102CB0002DE9F041012400254FF000082F4800883D
:102CC0002E49091F098840EA01402D4990FBF1F087
:102CD00004440FE0A4F5B7746D1C002607E0B4F5BA
:102CE000B77F00DA05E0A4F26D146D1C761C032E8C
:102CF000F5DB00BFB4F5B77FECDAE91705EB9171AE
:102D00008910B5EB810101D0002700E001270026E2
:102D10000AE008F1010807EB870000EBC70019493A
:102D20000844805D241A761C07EB870000EBC7007F
:102D300014490844805DA042EBDB13494D7181F8D2
:102D40000480CC70114805F07FFC0F49C87802233D
:102D50000022052103F0ECFD0DA003F04DFE0A4911
:102D60000879022103F0E1FD0AA003F045FE0649BF
:102D70004879022103F0D9FDBDE8F0811C2800400C
:102D8000805101005B01002075010020D847040834
:102D90003A0000003A323000704700002DE9FC5F35
:102DA00015460746DFF89C8028440190D8F80000BB
:102DB0001C460E46C06E01EB040949464268019864
:102DC0009047781B0090D8F800004946C06E4268D2
:102DD00000989047D8F8000006EB050B07EB0409B4
:102DE000C06E5946426848469047D8F80000A6EBA6
:102DF000050A5146C06E426848469047002C1ED0D6
:102E0000D8F80000361B4546C06E3146426801982E
:102E1000904728683146C06E4268009890472868FD
:102E20003C1B5946C06E4268204690472868514670
:102E3000C06E426802B02046BDE8F05F1047BDE8B2
:102E4000FC9F00008806002070B505460C46611FF7
:102E5000621D284604F0F2F8691F6A1D204604F03E
:102E60003BF804222146284603F058FF70BD30B5D8
:102E70008DB004460D46032005F016FC0020ADF889
:102E800004000520ADF80600ADF808000021ADF8FB
:102E90000A100A20ADF80C000521ADF80E100F2025
:102EA000ADF810000021ADF812101420ADF8140098
:102EB0000521ADF816100F20ADF818000A21ADF865
:102EC0001A101420ADF81C000F21ADF81E100F20B1
:102ED000ADF820001421ADF822100A20ADF824002E
:102EE0000F21ADF826100520ADF828001421ADF80B
:102EF0002A100020ADF82C000F21ADF82E1005206F
:102F0000ADF830000A21ADF832106FF07F4005F0C7
:102F100085FB2B4622460C2101A804F029F90DB0AF
:102F200030BD70B586B005460E461446032005F048
:102F3000BBFB0020ADF80000ADF802000520ADF8A5
:102F400004000021ADF80610601D00B2ADF80800C5
:102F500004EB440001B2ADF80A100520ADF80C00F6
:102F600004EB4400400001B2ADF80E100020ADF8B3
:102F7000100004EB4400400001B2ADF8121020B282
:102F8000ADF8140004EB440001B2ADF816106FF078
:102F90007F4005F043FB33462A460621684604F08D
:102FA000E7F806B070BD70B586B005460E4614460B
:102FB000032005F079FB601D00B2ADF80000002091
:102FC000ADF8020020B2ADF804000021ADF8061003
:102FD0000020ADF8080004EB440001B2ADF80A107F
:102FE00020B2ADF80C0004EB4400400001B2ADF893
:102FF0000E10601D00B2ADF8100004EB440040005C
:1030000001B2ADF812100520ADF8140004EB440035
:1030100001B2ADF816106FF07F4005F0FFFA3346AD
:103020002A460621684604F0A3F806B070BD2DE9D3
:10303000FC470E465FEA000978D002F0F5FF0090E9
:1030400090F85470D0F85880456BC46C684603F013
:1030500035F8B8F1000F04D0314648464246904753
:1030600061E0122E18D006DC082E43D0102E3CD082
:10307000112E06D112E0132E21D01D2E43D01E2E6C
:103080003DD0202E4FDB17B1484613F0CAFAB1B23B
:10309000484619F019FD60B3611C27E04DB328467E
:1030A00002F0C2FF05462146019005F069FD441972
:1030B000204605F01FFD01462346012210E0C5B160
:1030C000284602F0B1FF05462146019005F058FD63
:1030D0004419204605F00EFD014623464FF0FF320D
:1030E000484612F02EFD01A81BE0611E484600F084
:1030F000F0FA18E0BCB1611E484600F0EAFA484612
:1031000013F08FFA0FE0484602F08EFF0090012F77
:103110000ED0012180F854102146484600F0D9FA1B
:10312000684602F0CBFF484610F099FCBDE8FC87EA
:10313000002180F85410F3E7FEB5446805462046A8
:1031400011F070FB0646294620460FF074FB00285C
:1031500034D028680E283DD004DC0B282FD00C2852
:103160004AD116E00F2825D0A0F58070133843D13E
:10317000204610F003FE204600211BF09FFE204653
:1031800002F052FF0190C06F002110F0DDFD01A898
:103190001DE0E86860B1017A29B10168204600F0BD
:1031A00009F9012100E00221204610F018FD23E07A
:1031B0000321F9E7012120461BF080FEFEBD2046D9
:1031C00002F032FF0090343002F08EFE684602F0CA
:1031D00075FF11E086B1E868416800290CDD0168DF
:1031E000092909D00A2907D00D2905D01B2903D0A8
:1031F0002046FFF71CFFFEBD28460FF047FFFEBD2F
:10320000F0B587B00DF1300EBEE8F0104FF0000EB3
:103210008DE8F05000F028F807B0F0BDF0B587B0A9
:1032200004460DF1080CD4E90567B0F90850408A4E
:10323000ACE8E1000020CDE90010B4F90C00B4F9CD
:103240001060C118B4F90A00B4F90E5010443346A6
:103250002A4600F009F8050002D0618A00F0FCF966
:1032600007B02846F0BD00002DE9FF410D46DDE91D
:103270000D640F9FDDE90AC141F480515837DFF832
:1032800074E0CDE900C1CDE902E729460FF04EFE1A
:1032900005002AD002F0C8FE1022314600900FF03F
:1032A000CFFC00981C2214496030FDF7C5F8009946
:1032B000012081F85500601C00D0012081F88000B9
:1032C000002C00DC082424B20C87002048874863C7
:1032D000641C684602F0F2FE2146284619F0B3F954
:1032E00018B928460FF006FF002504B02846BDE8AF
:1032F000F08100003931000838080020014880685A
:1033000070470000380800202DE9FC4115460E00EA
:1033100022D0002820D002F087FE002701903770CD
:10332000406BB0B102F080FE009006F0A3FC0146B5
:10333000009805F025FC0446681E844200DD044622
:10334000224630460099FCF7F0FF684602F0B6FED0
:10335000375501A802F0B2FEBDE8FC8138B5002463
:1033600030B102F061FE0090846C684602F0A6FE67
:10337000204638BDF8B515460C4606000ED002F0C2
:1033800053FE009038B1022C05D200EB8400456753
:10339000304610F064FB684602F090FEF8BD10B5B0
:1033A000040006D000F095F92046BDE8104010F06A
:1033B00056BB10BD2DE9F04186B00C46060050D03A
:1033C00002F032FE0090406B98B302F02DFE0390A5
:1033D0000098806E05F038F98046304610F091F87C
:1033E0000746039804F00BFB0546009890F8601020
:1033F00001F00301012916D002290DD0416EC06AE7
:1034000000680844241A641E039806F033FC014641
:10341000002C0FDA002115E0781B401C00EBD07067
:10342000A4EB6004F0E7406E791B081A241A641CB0
:10343000EAE713E0AC4205DC02462146039806F0B9
:10344000B9FB0146304600F044F903A802F036FE0D
:10345000404605F0F9F8304610F001FB684602F0EE
:103460002DFE06B0BDE8F0812DE9F8431D46DDE9EB
:10347000084916460F465FEA000841D002F0D4FD25
:1034800000903C301F49C1611F4901620021C0E921
:103490000371C0E90065047280F81A900121017679
:1034A00090F84470684602F009FE87B1284618F08B
:1034B0004AF80546304618F046F80CB1401C6D1C21
:1034C000854200DD28460146404600F031F840467E
:1034D0001DF01EFF404602F0A7FD009000F0E4F84A
:1034E0000A490978884205D10098C16C4046491CB8
:1034F00000F0EFF8684602F0E1FD404610F0AFFA48
:10350000BDE8F88311500108111302087C06002061
:1035100038B50C4605000AD002F086FD009018B1BF
:103520008466284610F09BFA684602F0C7FD38BD55
:103530007CB50C4606002ED002F076FD0090B0F966
:103540003810458FA14223D012DD406B80B102F0CC
:103550006BFD019006F08EFBA04206DD214601982E
:1035600005F00EFB019A0021115401A802F0A6FDFE
:10357000684602F0A3FD611B491C304619F063F850
:10358000304602F051FD00900487304610F067FA93
:10359000684602F093FD7CBD2DE9FC4788465FEA52
:1035A00000094FF0000555D002F03EFD0090B0F943
:1035B0003860446B684602F081FD0027B8F1000FC7
:1035C0003ED04CB1204602F02FFD0190FCF78EFE5C
:1035D000451C01A802F072FD404606F04BFB044674
:1035E000B04200DD34462146404605F0C9FA461C8B
:1035F000711B484619F023FB08B3484602F014FD3E
:103600000090406B02F010FD324641460190FCF7FD
:103610008CFE0198304400F8017C0098C464B0F935
:1036200038108C4205D190F85410012901D1641E44
:10363000C464684602F042FD01A802F03FFD06E0C6
:103640000098343002F050FC00984787C764484621
:1036500010F005FABDE8FC8738B50C4605000AD025
:1036600002F0E2FC009018B10466284610F0F7F969
:10367000684602F023FD38BDF8B515460C46060035
:103680000ED002F0D1FC009038B1022C05D200EB34
:103690008400C566304610F0E2F9684602F00EFD7F
:1036A000F8BD00221DF0D8BB38B50446406B00259C
:1036B00068B102F0B9FC00900546E16C05F060FAD3
:1036C000284405F017FA0546684602F0F7FC28463C
:1036D00038BD1CB50C4602F0A7FC0090406BF0B161
:1036E00002F0A2FC019006F0C5FA009991F854206E
:1036F00002B10122002C00DA0024844200DD0446DD
:10370000B1F93800801AA04200DA0446C86CA04221
:1037100000D0CC640020086501A802F0CFFC684608
:1037200002F0CCFC1CBD000010B5002400E0641CBD
:1037300026488442FBD30121254801F063FEA0BB4B
:103740000BF024FD23490870084600782A2804D18C
:1037500021480BF0EBFB1F4908701E4800782A280F
:1037600007D11D49B1F8421008040CF095FA194927
:103770000870184800782A2805D14FF400600BF033
:1037800071FB14490870134800782A2804D10020DE
:103790000CF09CFA0F4908700E4800782A280BD1CB
:1037A0000E49002023F03AFA06E0FFE70BF0E4F8B8
:1037B0000021084623F032FA01200949087000F080
:1037C0003BF8062009F00CFE10BD00008096980022
:1037D0000018014056010020080D00204C0D00206B
:1037E0005D03002010B50F48007870B9002400E098
:1037F000641C0D488442FBD300200C4908700C491E
:10380000087001200749087005E0002400E0641CEE
:1038100008488442FBD3042000F00EF8082009F089
:10382000DFFD10BD5701002080841E0058010020DC
:1038300059010020400D030010B50446200D00057D
:1038400001D104B103E0FC2102A021F060FC0D488D
:10385000046010BD53544D3332463130785F537499
:10386000645065726970685F4472697665725C73F2
:1038700072635C73746D3332663130785F6578746F
:10388000692E63001404014070B5044600252079B8
:1038900010B12079042800D103E06A2135A021F07D
:1038A00036FC6079082805D060790C2802D0607950
:1038B000102800D103E06B212EA021F028FC206805
:1038C000000D000502D1206800B103E06C2129A0A1
:1038D00021F01DFCA07910B1A079012800D103E0EE
:1038E0006D2124A021F013FC2E4DA07990B3284621
:1038F00000682168884329460860081D006821681F
:103900008843291D086020790544286821680843F8
:10391000286024480830006821688843214908311C
:103920000860081D0068216888431E490C31086042
:10393000607910280FD1081F0068216808431949D1
:1039400008310860081D00682168084315490C31DA
:1039500008600EE007E0134D60790544286821688F
:103960000843286005E020790544286821688843D9
:10397000286070BD53544D3332463130785F5374F4
:10398000645065726970685F4472697665725C73D1
:1039900072635C73746D3332663130785F6578744E
:1039A000692E6300000401402DE9F04389B0984678
:1039B00015460F4606004FF0000429D000F006FA25
:1039C0000446304600F0D2F9814603A9304600F0A3
:1039D0005AFBF80706D0BDF91C00001B401B401C19
:1039E000822109E0B8070028BDF91800284402DA4E
:1039F00040F2022100E002210096CDE90181234638
:103A00001A464946FCF706FF04460021FDF7B4F8C4
:103A100009B02046BDE8F08310B50523FFF7C4FFC9
:103A20000446054A0021FDF7C7F80449204610F076
:103A3000D9F9204610BD0000216B0108352D020880
:103A40002DE9F047456804468EB00026284602F06E
:103A5000EBFA00905C30B0F820A0D0F80C90D0F8D1
:103A60002480C76A006800B10668684602F026FB39
:103A700005E079682046884700283DD13F68002F3F
:103A8000F7D12068142844D009DCA0F10B000728E6
:103A900039D2DFE800F0BE3989B434B411002028EF
:103AA0007ED004DC17283ED01E282CD14BE02628DF
:103AB0003CD02A2827D110E02846E66802F0B4FA64
:103AC0000190717A39B9317A012904D130F87C1F1B
:103AD00041F48071018001A88FE0284602F0A4FA29
:103AE0000090E16811B1C0F8841002E0D0F88400C1
:103AF000E060684602F0E2FA0EB0BDE8F087002E02
:103B00007DD02846B0477AE0214628461AF0FCFED0
:103B1000F2E705A9284600F0B6FAE06806990160C8
:103B200007994160E8E7C4F80C90E5E7E0680228EF
:103B3000E2D10C95E0680D9027200A900AA9A068B0
:103B400011F08AF8D8E7E068012804D0002128465F
:103B500000F0AFF9D0E740460FF0E3FF58B1404620
:103B600010F00CFA40460FF0B1FE88B1012140463A
:103B70000EF0EBFE0CE0484610F04EFA8046284668
:103B800002F052FA0090C0F88080684602F096FA7F
:103B90000121284600F08DF9B8F1000FACD100E00A
:103BA0000EE00020E060A7E75FEA0A7027D4E06833
:103BB000C06820B3007A10B3284610F0DFF91EE089
:103BC000E668E6B12946706810F015FE20B10121C3
:103BD00028461CF0B3FB12E0002128461CF0AEFB87
:103BE0002946306810F0F6FD48B1284602F01CFA6C
:103BF00003903168C0F8801003A802F05FFA2146F4
:103C000028460EF018FE00288CD020460FF03EFA11
:103C100072E7284602F008FA0090703002F064F96A
:103C20006846EAE72DE9F04387B00DF13808814690
:103C3000B8E8F1104FF00008CDF818808DE8F110C9
:103C4000484600F023F807B0BDE8F083F0B587B030
:103C5000B0F908400DF10C0C0C9E87694568ACE882
:103C6000F000448A0025CDE900150294B0F90C104B
:103C7000B0F91050B0F90E40B0F90A0019441044E0
:103C80002B46224600F002F807B0F0BD2DE9F047C0
:103C90008AB00DF14C0CDDE91784BCE86006129F78
:103CA00045F480556034DFF8B8C0CDE902C4CDE9F1
:103CB00000750FF03BF904004DD002F0B5F9302249
:103CC000494604900EF0BCFF049828222549343060
:103CD000FCF7B2FB0498234F5C30083FC0F8088023
:103CE0000684002646620661C6627968016004A8FF
:103CF00002F0E4F905A9204600F0C5F91A4841F29E
:103D0000827103960094CDE90110BDF91E00BDF942
:103D10001A10BDF91C20431ABDF918005B1C121AB9
:103D2000521C0FF003F90646786841682046884720
:103D3000204602F079F90490866604A802F0BEF9E4
:103D400042F20400054202D120460FF037FA5146F4
:103D5000204600F02CF90AB02046BDE8F0870000AC
:103D6000413A00085C0800209543000838B505007A
:103D70004FF000040CD002F057F90090C06D002104
:103D800080680268284690470446684602F096F923
:103D9000204638BDF8B50E4605004FF000040CD0A3
:103DA00002F042F90090C06D3146806802682846F2
:103DB00090470446684602F081F92046F8BD0000AD
:103DC00001480068704700005C08002030B587B0EB
:103DD00005004FF000040ED001A900F054F9284668
:103DE00002F022F90090B0F95440684602F066F9FA
:103DF0000CB9BDF9044007B0204630BD30B50446CB
:103E00008BB0006802F010F9009090F87C10246AE2
:103E1000006FC1F3C00508B102F006F90690E06832
:103E2000029020690390A088401EADF81000E08940
:103E3000ADF812002089401CADF81400608AADF87E
:103E40001600BDF80800401CADF80800BDF80A00D7
:103E5000401CADF80A00BDF80C00401EADF80C0087
:103E60000098406B04F0F0FB009808AA02A9B0F992
:103E70005A30069805F044F8009800EB8500806BF6
:103E800007F0D4F9009800EB8500006C07F006FA03
:103E900008AB02AA04A906980EF006FE684602F0D6
:103EA0000DF9069810B106A802F008F90BB0002031
:103EB00030BD002801D01CF041BA7047F8B5154656
:103EC0000C4606000DD002F0AFF80090022C05D28F
:103ED00000EB8400856330460FF0C1FD684602F0B8
:103EE000EDF8F8BD38B50C4600280CD002F09CF86F
:103EF0000090816CA14203D08464806E0FF0AFFD0E
:103F0000684602F0DBF838BD2DE9FC410D4607009C
:103F100028D002F089F80190C16D8C6800F01AF980
:103F200080460198456301A802F0C8F82268012183
:103F30003846904706462268032138469047054692
:103F400022680021384690470446384600F0EBF9D5
:103F50002B46324641463846009400F073F9384605
:103F60000FF07DFDBDE8FC8138B50C4600280ED071
:103F700002F05AF8009030F87C1F14B141F01001A3
:103F800001E021F010010180684602F097F838BD89
:103F900038B50D46040009D002F046F800900566D9
:103FA000684602F08BF820460FF059FD38BD7CB50D
:103FB0000D46040019D002F037F80090006F019010
:103FC000684602F07BF8294601A805F0D3FF0028D7
:103FD0000BD0204602F028F800900199016768464E
:103FE00002F06CF820460FF03AFD7CBD38B50C4667
:103FF00005000ED002F018F80090B0F95A10A14256
:1040000004D0A0F85A4028460FF029FD684602F077
:1040100055F838BD2DE9FC470D465FEA00094FF021
:1040200000042DD002F000F80190B0F95440A542F0
:1040300023D000F08FF8804601980121A0F8545059
:10404000C06D856848462A68904707462A6803215C
:104050004846904706462A6800214846904705464C
:10406000484600F060F933463A46414648460095D6
:1040700000F0E8F848460FF0F2FC01A802F01EF844
:104080002046BDE8FC872DE9F34F85B000270C469C
:10409000B846059801F0C8FF0090C06D0121856801
:1040A00005982A68904782462A6803210598904718
:1040B00004902A6802210598904703902A680021FD
:1040C000059890470646009810F031FA834600980C
:1040D00010F034FA8146009890F83210890601D524
:1040E000B0F9588000F036F805460098C06E10B15F
:1040F0000FF018FA074625806780A4F804A0049AF8
:10410000ABEB020006EB0802401E2A4420813A4431
:10411000E280039BA9EB0302521E6281A4F80CA06B
:1041200020827019E681401E6082684601F0C6FF59
:10413000B4F90C000190B4F91000029002AA01A990
:10414000059800F039F80198A0810298208207B004
:10415000BDE8F08F10B50146002091F8322092069C
:1041600007D5B1F95400002803D1486B03F0B0FC27
:10417000801C10BD70B58AB00C46054601F054FF96
:104180000990C06D866809A801F098FF009534B1C8
:10419000012C06D0022C0BD0032C04D10AE01820ED
:1041A00000E0162001907168684688470AB070BD2B
:1041B0001520F7E71720F5E72DE9FC4790468946DB
:1041C000044601F031FF0090C16D056868468E68B5
:1041D00001F074FF326800212046904706462046D1
:1041E0000FF082F82F1404462DB227E001F01CFFD7
:1041F0000190B0F90010B0F90420B0F90230491B69
:10420000521BDB1BB34212D190F82800000607D5E1
:10421000D8F8000088420ADB491EC8F8001006E002
:10422000D9F80000904202DC521CC9F8002001A815
:1042300001F044FF20460FF0EFF80446002CD5D1E2
:10424000BDE8FC872DE9FF4F83B00E460746DDF839
:10425000409001F0E9FE0190C16D8D68FFF77AFF93
:10426000044601A801F02AFF2A6801213846904738
:1042700083462A6803213846904782462A680021EF
:10428000384690470546B44207D105998B4504D17D
:1042900006998A4501D14D4542D0A41B0026B0465F
:1042A00038460FF021F839E001F0BEFE0090806A38
:1042B000010602D54FEA805002E0810528D50006AC
:1042C000002825DB24B12246114638460FF0C5FCF4
:1042D000009890F8280000060AD50698A5EB090278
:1042E000A0EB0A0004FB1601761C38460FF075FCA3
:1042F0000098008D80050BD50599A5EB0902ABEB65
:10430000010004FB080108F1010838460FF065FCC4
:10431000684601F0D3FE38460FF07EF80700C3D19F
:1043200007B0BDE8F08F70B586B0064601F07CFEA0
:104330000590D0E91A4505A801F0C0FE54EA050031
:1043400026D069463046FFF79EFEACB1BDF9062087
:10435000BDF9041020460FF015FCBDF90A00BDF9A7
:104360000610421ABDF90800BDF90410521C411A8A
:10437000491C20460FF0B1FE002D09D0BDF9060002
:10438000BDF90210421ABDF9041028460FF0FAFBDD
:1043900006B070BD2DE9F0430446406885B006467E
:1043A0000FF041F8814601F03FFE0090D0F8808088
:1043B000876C456E684601F081FE2068172859D049
:1043C00008DC0E2837D00F280BD0142852D015281F
:1043D0003AD14FE01E2818D01F2827D0222833D1E9
:1043E00046E06FF07040874204D0384606F01EFF6A
:1043F00002F00EF9002D12D0D4E902122068CDE9A6
:104400000106CDE9031201A822E0E068002806D0E9
:104410005FEA080006D0B04504D00FF0AFFD05B04C
:10442000BDE8F08330460FF0F7FD16E02146484620
:104430000EF001FAF3E7E0684168002904DD006846
:104440000928EFD00A2805D0A5B12046C4F8049069
:10445000A847E4E730460FF0E7FD0446484601F080
:10446000E3FD0090C0F88040684601F027FED6E7E3
:10447000E760D4E720460EF009FED0E770B50446A9
:104480000D462CB1022C03D0042C01D0062C00D1F7
:1044900004E040F2DD1111A020F039FE0DB1012D34
:1044A00000D104E04FF4EF710CA020F030FE55B1C4
:1044B0004FF0204050F8240040F001004FF0204120
:1044C00041F8240009E04FF0204050F824000F4943
:1044D00008404FF0204141F8240070BD53544D3343
:1044E00032463130785F5374645065726970685F2A
:1044F0004472697665725C7372635C73746D333297
:10450000663130785F66736D632E6300FEFF0F00C7
:1045100010B50446206840B12068022805D0206804
:10452000042802D02068062800D103E0B321C8A0E7
:1045300020F0EDFD606810B16068022800D103E052
:10454000B421C3A020F0E3FDA06828B1A06804282E
:1045500002D0A068082800D103E0B521BCA020F05B
:10456000D6FDE06810B1E068102800D103E0B62164
:10457000B7A020F0CCFD206918B12069B0F5807F8C
:1045800000D103E0B721B2A020F0C1FD606918B1ED
:104590006069B0F5004F00D103E0B821ACA020F075
:1045A000B6FDA06918B1A069B0F5007F00D103E0A5
:1045B000B921A7A020F0ABFDE06918B1E069B0F522
:1045C000806F00D103E0BA21A1A020F0A0FD206AF5
:1045D00018B1206AB0F5006F00D103E0BB219CA0A8
:1045E00020F095FD606A18B1606AB0F5805F00D177
:1045F00003E0BC2196A020F08AFDA06A18B1A06A51
:10460000B0F5005F00D103E0BD2191A020F07FFD57
:10461000E06A18B1E06AB0F5804F00D103E0BE2136
:104620008BA020F074FD206B18B1206BB0F5002F2B
:1046300000D103E0BF2186A020F069FD606B006817
:104640000F2800D803E0C02181A020F060FD606B3E
:1046500040680F2800D803E0C1217DA020F057FD5D
:10466000606B806820B1606B8068FF2800D803E031
:10467000C22177A020F04BFD606BC0680F2800D8E6
:1046800003E0C32172A020F042FD606B00690F2897
:1046900000D803E0C4216EA020F039FD606B4069B2
:1046A0000F2800D803E0C52169A020F030FD606B21
:1046B000806970B1606B8069B0F1805F09D0606B18
:1046C0008069B0F1005F04D0606B8069B0F1405F39
:1046D00000D103E0C6215EA020F019FDD4E901015C
:1046E0000843E16808432169084361690843A169F7
:1046F0000843E1690843216A0843616A0843A16AE3
:104700000843E16A0843216B08434FF020422168C7
:1047100042F82100A068082808D11146206851F805
:10472000200040F04000216842F82100606B0068E2
:10473000616B496840EA0110616B896840EA0120B9
:10474000616B898940EA0140616B098A40EA015046
:10475000616B097D40EA0160616B896908432168EA
:10476000491C4FF0204242F82100E06AB0F5804F2A
:1047700063D1A06B00680F2800D803E0EA2134A0C1
:1047800020F0C5FCA06B40680F2800D803E0EB21A7
:104790002FA020F0BCFCA06B806820B1A06B8068CB
:1047A000FF2800D803E0EC2129A020F0B0FCA06B8A
:1047B00000690F2800D803E0ED2125A020F0A7FC18
:1047C000A06B40690F2800D803E0EE2120A020F064
:1047D0009EFCA06B806970B1A06B8069B0F1805FB6
:1047E00009D0A06B8069B0F1005F04D0A06B806934
:1047F000B0F1405F00D103E0EF2115A020F087FC6D
:10480000A06B0068A16B496840EA0110A16B896840
:1048100040EA0120A16B098A40EA0150A16B097DA1
:1048200040EA0160A16B896908434FF0204221688A
:1048300002EB8101C1F8040108E06FF070404FF015
:104840002042216802EB8101C1F8040110BD000083
:1048500053544D3332463130785F5374645065722F
:104860006970685F4472697665725C7372635C73C9
:10487000746D3332663130785F66736D632E63001A
:104880002DE9FC4107460D4600262A240020009011
:10489000019008205B490860102048604020886033
:1048A0000020C8604FF48060086108460AF042FAB0
:1048B0001020FCF7E9FF04462A2C02D02046BDE870
:1048C000FC815148008800044E4908603720486048
:1048D000402088600020C8604FF48060086108466E
:1048E0000AF028FA3720FCF7CFFF04462A2C01D023
:1048F0002046E4E7454846490860082048603020E3
:1049000088600220C86000200861012048610846D4
:1049100009F0A4FF00203B49086033204860402094
:1049200088600020C8604FF48060086108460AF083
:1049300001FA3320FCF7A8FF04462A2C01D02046B8
:10494000BDE709E04FF400100AF02EF820B10AF09C
:10495000EBF94DF82600761C2E48406B40F22A6198
:104960000842EFD008200AF01FF828B1082009F00B
:10497000CDFE04242046A2E702200AF015F828B153
:10498000022009F0C3FE0224204698E720200AF006
:104990000BF828B1202009F0B9FE062420468EE746
:1049A0004FF400700AF000F830B14FF4007009F0D5
:1049B000ADFE0724204682E740F2FF5009F0A6FE34
:1049C00000980006009901F47F4140EA0120009917
:1049D00001F47F0140EA1120009940EA116068600B
:1049E00001980006019901F47F4140EA01200199F4
:1049F00001F47F0140EA1120019940EA116028602A
:104A000020465CE71CBE002028060020FFFF0F00A8
:104A100030BE00200080014010B504460A280FD0A7
:104A20000D2C11D009480068C069016820468847EC
:104A300007480168002907D02046BDE81040084714
:104A4000BDE8104001F0B4BF10BD00008806002092
:104A5000B00600202DE9FF5F8346DDE90E4598464C
:104A600091468A4604F5B47405F5B4754FF0FF36E7
:104A700001274FF4B47003E0A4F5B474A5F5B47540
:104A80008442F9DA002D65DD5A2C11DA002C00DAA7
:104A900000245A2D01DA284600E05A20CDE90040D2
:104AA000CDE9027643464A465146584612F090F800
:104AB0005A3D5A3C002D4DDD5A2C14DA002C00DAF8
:104AC00000245A2D01DA284600E05A20C4F15A0188
:104AD000C0F15A008DE8430043464A4651465846C5
:104AE000039612F075F85A3D5A3C002D32DD5A2CCF
:104AF00012DA002C00DA00245A2D01DA284600E0F0
:104B00005A200DF1040C0094ACE8C10043464A461B
:104B10005146584612F05CF85A3D5A3C002D19DDBA
:104B20005A2C14DA002C00DA00245A2D01DA284617
:104B300000E05A20C4F15A01C0F15A008DE8830008
:104B400043464A4651465846039712F041F85A3DAB
:104B50005A3C97E7BDE8FF9F2DE9F0430446C5683E
:104B600087B090468946002003F06BFD064625B1CC
:104B7000287910B146F0020001E026F0020003F0AF
:104B800060FD2069012558B1D4E902128DE82600A4
:104B9000039563882288046841464846A0471EE082
:104BA000124F134B214638681B68427CE0689847D7
:104BB00030B9E088012801D0002001E03868806B1E
:104BC000A288E388A1680095CDE90410CDE90232FE
:104BD0000195638822884146484605F0F3FE07B0F8
:104BE0003046BDE8F04303F02CBD000088060020ED
:104BF000800600202DE9F0478146884640F2C32018
:104C000050434FF47A7190FBF1F502FB02F002EB96
:104C1000D27100EB61066D1C1746002341464846E1
:104C2000FEF7BCF8012413E004FB04F007FB0700C7
:104C3000B04206DD3B46224641464846FEF7AEF806
:104C40007F1E3B46224641464846FEF7A7F8641CB5
:104C5000AC42E9DDBDE8F0871CB50024019401AC4D
:104C6000009400F0E7F81CBD2DE9FF4F83B08146AA
:104C700006988A46A0EB0A08109E00200090A2EB3E
:104C800009043568934654EA080018D02046FBF71B
:104C9000CCFC07464046FBF7C8FC87420BDA2046AF
:104CA000444680464846D14682465846DDF818B00C
:104CB000069001200090002C07DD204606E007B09A
:104CC0004846BDE8F04F00F03BB96042A0420AD030
:104CD0004846D9466442C8F1000883464FF0FF3782
:104CE000DDF818A000E001275148B8F1000F11D0FD
:104CF00004EBD4714FEA610B01DACBF1000B4C48A5
:104D00000068807E88B3002F02DA3068204430606B
:104D100000257BE000990029016821D0897E11B12E
:104D20000027804615E007B05A4649465046BDE880
:104D3000F04F05F0ABBF28466D1C1BF06BFC38B97B
:104D4000D8F8000009EB0701C06E42685046904752
:104D50007F1CA742EFDD6D1E356007B0BDE8F08F08
:104D60008A7E1AB10027804617E019E0C86E5A46BD
:104D70005146036807B04846BDE8F04F184728463B
:104D80006D1C1BF047FC38B9D8F8001009EB070080
:104D9000C96E4A68514690477F1CA742EFDDDAE7AB
:104DA00000250FE008FB05B090FBF4F101EB0A00D1
:104DB000009951B11E4A09EB05011268D26E526882
:104DC00090476D1CA542EDDDC7E7194909EB0503C6
:104DD0000968C96E4A6801461846F1E708FB05B044
:104DE00090FBF4F101EB0A00019030683844306028
:104DF0001BF010FC48B9009890B10D4809EB050173
:104E00000068C06E4268019890476D1CA542E5DDC0
:104E10003068002F01DA20443060C01B30609CE70E
:104E2000034909EB05000968C96E4A680199EBE777
:104E3000880600202DE9FF470F4640491646804668
:104E400009680C981D460A7E012A1CD0A8EB0600B2
:104E5000791B50EA01031CD0A2F101091CF0BAFF32
:104E600000F58060824605F0ADF900FB09F450467C
:104E700005F0ACF900FB09F1002C0CDAC4F5007068
:104E8000801240420AE00090324639464046FFF721
:104E9000EBFEBDE8FF8704F50074A012002904DAD8
:104EA000C1F5007189124C4202E001F500718C12CB
:104EB000002804DD411C01EBD171491003E000EB37
:104EC000D0714910401E00EBD0704210002C04DD60
:104ED000601C00EBD070401003E004EBD470401075
:104EE000641E04EBD47308EB0104ADF800403C18D9
:104EF000ADF80240A8EB02045B10B21AADF8044012
:104F0000ADF808203144FC1AEA1AADF80C10284418
:104F1000ADF80A20ADF80E000023ADF806401A46A1
:104F20000421684600F07AF83946404614F07CFBCC
:104F30002946304614F078FBABE7000088060020D5
:104F4000064A13681A7E012A05D0521E02EBD2725D
:104F5000521000F005B8DA6E52681047880600203B
:104F60002DE9F05F0646884640F2C32050434FF4D7
:104F70007A7190FBF1F702FB02F002EBD27100EBC9
:104F8000610B254914467F1C09683244301BC96EE9
:104F90000B684146984701253AE000BF05FB05F044
:104FA00004FB040159451CDDBC4219DD1A4B06EB1C
:104FB000050AA6EB05091B68AAF1010208EB04012A
:104FC000DB6E09F101001B689847134BAAF101023F
:104FD000A8EB04011B6809F10100DB6E1B68984710
:104FE000641E0D4806EB040AA6EB0409006808EBF2
:104FF00005015246C06E0368484698470648A8EB2C
:10500000050152460068C06E0368484698476D1C0B
:10501000BD42C3DDBDE8F09F880600202DE9FF4FAB
:1050200040F6FF740F46664283B09B4681460021DE
:105030000BE000BF09EB8100B0F90200A04200DAEA
:105040000446B04200DD0646491CB942F2DB68481E
:105050000068406900280DD0B0F906101A46A1EB8F
:105060000B01B14200DA0E46B0F90200801AA042EC
:1050700000DD0446B5E0DFF87CA100200546CAF853
:10508000000089E0781E854201DA6B1C00E00023F5
:1050900009EB850C09EB8302BCF90200B2F902109E
:1050A000A04245D1A14215D139F92330059A39F9E9
:1050B000251003EB020C4E4A05981268084404EBD5
:1050C0000B01D26E6045136801DA62462BE002469E
:1050D000604628E02846A4464FF000087A1E0BE000
:1050E00008B1401E00E0781E09EB8003B3F90230DE
:1050F000634504D108F101089045F1DB2346A34242
:1051000049D0A3EB040239F92500A1EB040C059B5F
:1051100092EA0C0209D4364A184404EB0B011268D7
:10512000D26E13680246984735E00FF0A5FE32E0D4
:10513000A14230D001DBA04203DDA0422BDBA14223
:1051400029DCE04688420ADC0346A04223DC08460C
:10515000A14220DBB8F900C0B2F9001008E00B460C
:10516000A14218DCA04216DBB2F900C0B8F9001069
:10517000E21AA1EB0C0151430029A0EB030202DD6E
:1051800001EB620102E0A1EB6201491CC01A91FB34
:10519000F0F06044C9E76D1CBD42FFF673AF05989F
:1051A000009004EB0B00019000208046054613E0C0
:1051B0001149B8F1000F31F915A009D0009901EBA0
:1051C0000A0208440A490968C96E0B6801999847A0
:1051D00088F0010850466D1C064909688D42E7DBDE
:1051E000641CB4427FF747AF07B0BDE8F08F000002
:1051F00088060020E806002008E3002010B5002003
:1052000003F008FA6FF07F4003F008FA012003F082
:105210004BFA002003F050FA002003F057FA002068
:1052200003F00FFA0448006803F00EFABDE81040DE
:10523000002003F015BA0000840600202DE9F05F7D
:1052400005460C464FF00009CA4600260027B04626
:10525000B3465948854211D0584885420ED0584827
:1052600085420BD05748854208D05748854205D023
:105270005648854202D05648854200D103E0B2210B
:1052800054A01FF044FFE078A0B1E078042811D0CA
:10529000E07828280ED0E07848280BD0E078142851
:1052A00008D0E078102805D0E0781C2802D0E078FB
:1052B000182800D103E0B32146A01FF028FF0020EA
:1052C00010B9208800B103E0B42142A01FF01FFFF5
:1052D000E07800F00F09E07810F0100F10D0A078FF
:1052E000012805D0A078022802D0A078032800D198
:1052F00003E0BB2137A01FF00AFFA07840EA0909AC
:10530000207838B3D5F8008000261FE0012000FA8D
:1053100006F7208800EA070ABA4516D1B7000F2021
:1053200000FA07FB28EA0B0809FA07F040EA080828
:10533000E078282803D10120B040686105E0E078DA
:10534000482802D10120B0402861761C082EDDD308
:10535000C5F800802088FF282BDDD5F804800026C2
:1053600023E006F10800012101FA00F7208800EA95
:10537000070ABA4518D1B7000F2000FA07FB28EA40
:105380000B0809FA07F040EA0808E078282803D15A
:1053900006F1080081406961E078482804D106F1EF
:1053A0000800012181402961761C082ED9D3C5F857
:1053B0000480BDE8F09F000000080140000C01409F
:1053C000001001400014014000180140001C014081
:1053D0000020014053544D3332463130785F5374CE
:1053E000645065726970685F4472697665725C7357
:1053F00072635C73746D3332663130785F677069E5
:105400006F2E630070B505460C460026284885427D
:1054100011D0284885420ED0274885420BD0274816
:10542000854208D02648854205D02648854202D0CC
:105430002548854200D104E04FF48F7123A01FF06E
:1054400066FE012C25D0022C23D0042C21D0082C60
:105450001FD0102C1DD0202C1BD0402C19D0802CFC
:1054600017D0B4F5807F14D0B4F5007F11D0B4F517
:10547000806F0ED0B4F5006F0BD0B4F5805F08D00C
:10548000B4F5005F05D0B4F5804F02D0B4F5004FFD
:1054900000D104E040F21F110CA01FF038FEA868F4
:1054A000204201D0012600E00026304670BD0000F9
:1054B00000080140000C01400010014000140140B0
:1054C00000180140001C01400020014053544D339E
:1054D00032463130785F5374645065726970685F2A
:1054E0004472697665725C7372635C73746D333297
:1054F000663130785F6770696F2E630070B504465F
:105500000D461348844211D0124884420ED01248EE
:1055100084420BD01148844208D01148844205D0FF
:105520001048844202D01048844200D104E040F286
:1055300079110EA01FF0EBFD002008B905B104E0C1
:105540004FF4BD7109A01FF0E2FD656170BD000060
:1055500000080140000C014000100140001401400F
:1055600000180140001C01400020014053544D33FD
:1055700032463130785F5374645065726970685F89
:105580004472697665725C7372635C73746D3332F6
:10559000663130785F6770696F2E630070B50446BE
:1055A0000D461348844211D0124884420ED012484E
:1055B00084420BD01148844208D01148844205D05F
:1055C0001048844202D01048844200D104E040F2E6
:1055D00069110EA01FF09BFD002008B905B104E081
:1055E0004FF4B57109A01FF092FD256170BD000058
:1055F00000080140000C014000100140001401406F
:1056000000180140001C01400020014053544D335C
:1056100032463130785F5374645065726970685FE8
:105620004472697665725C7372635C73746D333255
:10563000663130785F6770696F2E630070B50C4615
:10564000054600F015F9A8682168C1626168016328
:10565000A1684163490707D5D0E90021C0E90012DC
:10566000D0E90221C0E90212A189818421690029BF
:1056700003D001DC4FF00001016270BD2DE9F04163
:105680001E4617468846054600F0F2F8AC686822C8
:10569000414604F58470FAF7CFFE2846B8472846FD
:1056A000B047286980688047A062BDE8F0810000AB
:1056B00010B5044600F0DCF8A0680E494C30114AE1
:1056C000C1650D4981650D4901660D49816600215D
:1056D000C166136843660C4BC0E91E3151684167CF
:1056E00030F8261C21F0030120F8261C07494164EC
:1056F00010BD0000ED0602085D0B0208B5060208A9
:1057000069FE01082C0700200B000208E5050208CD
:1057100010B5044600F0ACF8A4680C489034102191
:1057200020650B4860650B48A0650B48E0650B4899
:10573000E0600B482061206BA06654F89029204659
:1057400090471020A0630748606410BDB181010834
:10575000D1A40108B1570008E15800087DFD0108F7
:10576000011602082075040870B50C46054600F0C5
:105770007FF80A48AA6814B1012C08D103E008494F
:105780000160084902E00849016008494160016878
:1057900042F8B01F4068106170BD00002C07002067
:1057A00021FE010881FF010849FE0108CDFF010823
:1057B000F8B5846815460F4694F8260080074CD546
:1057C000D4F8FC30204698470646D4F800312A46E3
:1057D000394620469847D4F8943005461BB100223C
:1057E0000121204698472069B04201DD012000E0F8
:1057F0000020A169B14201DA012100E00021084343
:105800006169A94201DD012100E000210843E1694D
:10581000A94201DA012100E0002108430AD06068B2
:10582000401E00902368D4F8A4705B1E002211462D
:105830002046B847D4F8A8302A4631462046984733
:10584000D4F89C1020468847D4F8943005466BB1B4
:10585000012200212046984708E0D4F8A8302046CD
:105860009847D4F89C102046884705462846F8BD3E
:1058700070B504468068002812D14FF4B8752846E8
:1058800000F048FB2A460021A06004F01FFCA0683D
:105890000221C1840121046401620249C0F804119B
:1058A00070BD0000A958000810B590B00446202231
:1058B0000A496846FAF7C0FD08492022203108A8A5
:1058C000FAF7BAFD606B5DF82010C4F8FC1008A967
:1058D00051F82000C4F8000110B010BD9C18040855
:1058E0002DE9F84384689846154694F826000F463B
:1058F000800740D5D4F8FC30204698470646D4F8B7
:1059000000312A4639462046984705462069B0426C
:1059100001DD012000E00020A169B14201DA01218E
:1059200000E0002108436169A94201DD012100E096
:1059300000210843E169A94201DA012100E00021C8
:1059400008430AD06068401E00902368D4F8A47011
:105950005B1E002211462046B847D4F8A8302A46DC
:10596000314620469847D4F8A02001B04146204651
:10597000BDE8F0431047D4F8A830F2E72DE9F04F26
:10598000DFF828B191B04FF0FF35DBF80030B3F904
:1059900022100691DE69B3F924A0F469A18981423D
:1059A00006D8E289824203D3471AD4F8008012E075
:1059B000D4E90181002970D00A8882426DD84D88CF
:1059C00085426AD3801A82B2486800EB8200B0F93F
:1059D0000070B0F90250781C5FD0307EA27C014686
:1059E00000FB02F9207CCDE90810B3F92A603046AB
:1059F00005F066FCC0B20E90DBF8001007FB0980D2
:105A0000A37C8A6B0127CDE90402CDE90273C86942
:105A1000DDE90832C17E807ECDE90001514606985D
:105A200004F0D0FF681C18D046F0020005F048FCD6
:105A3000DBF80000A37C05FB0981826BCDE90273D2
:105A4000CDE90412C069DDE90832C17E807ECDE96E
:105A500000015146069804F0B5FFDBF800005D46F2
:105A6000C069417E007E814214D9022E12D086F098
:105A7000040005F025FC2868C069027EC37E857E8F
:105A800002FB03A1437E099A0698534402FB0502D8
:105A900005F026F90E9805F013FCDBF80000627C97
:105AA000418C1144418411B0BDE8F08F880600207C
:105AB00004480068C069C06909B1027C0A60407C82
:105AC0007047000088060020022008807047C069E7
:105AD00082898A4202D8C2898A4210D2806880B103
