:020000040800F2
:1028000008EE00200D2A0008BDFF000821CD0008B9
:1028100045FE00083138000883520108000000001E
:10282000000000000000000000000000ED39010879
:102830004D57000800000000750501083D3A0108E9
:10284000232A0008232A0008232A0008450C01082F
:10285000232A0008232A0008DD600008232A000834
:1028600099610008232A0008232A0008232A000867
:10287000232A0008232A0008232A0008232A000804
:10288000232A0008232A0008232A0008232A0008F4
:102890007552010835380008232A0008232A000849
:1028A000232A0008232A0008232A0008232A0008D4
:1028B000DD3B0108232A0008232A0008232A0008F8
:1028C000232A0008232A0008232A0008232A0008B4
:1028D000232A0008232A0008232A0008232A0008A4
:1028E000232A0008A10B0108232A0008232A000834
:1028F000232A0008232A0008232A0008232A000884
:10290000232A000879170108232A0008232A00082F
:10291000232A0008232A0008493C01089D3C01089D
:10292000232A0008232A0008232A0008232A000853
:1029300000F002F800F05AF80AA090E8000C824477
:102940008344AAF10107DA4501D100F04FF8AFF254
:10295000090EBAE80F0013F0010F18BFFB1A43F07D
:102960000103184744900400649004000A444FF0A7
:10297000000C10F8013B13F0070408BF10F8014BDE
:102980001D1108BF10F8015B641E05D010F8016B23
:10299000641E01F8016BF9D113F0080F1EBF10F887
:1029A000014BAD1C0C1B09D16D1E58BF01F801CBAA
:1029B000FAD505E014F8016B01F8016B6D1EF9D52D
:1029C0009142D6D370470000002300240025002642
:1029D000103A28BF78C1FBD8520728BF30C148BF82
:1029E0000B6070471FB51FBD10B510BD00F0E3F9B7
:1029F0001146FFF7F7FF27F08FFE00F001FA03B44E
:102A0000FFF7F2FF03BC00F005FA0000084800479A
:102A1000FEE7FEE7FEE7FEE7FEE7FEE7FEE7FEE78E
:102A2000FEE7FEE703480449044A054B70470000EF
:102A30003129000808E6002008EE002008E8002000
:102A400008E8002040EA010310B59B070FD1042AD3
:102A50000DD310C808C9121F9C42F8D020BA19BA69
:102A6000884201D9012010BD4FF0FF3010BD1AB1CE
:102A7000D30703D0521C07E0002010BD10F8013B23
:102A800011F8014B1B1B07D110F8013B11F8014B4A
:102A90001B1B01D1921EF1D1184610BD40EA010363
:102AA000024630B59B0710D14FF0013400E008C258
:102AB00008C91D1B9D4315EAC41FF8D013F0FF0180
:102AC00002F8011B0DD01B0AF8E711F8013B002B9F
:102AD00002F8013B05D011F8013B002B02F8013B45
:102AE000F3D130BD10B5431C02E010F8011B71B1E9
:102AF0008107FAD14FF0013202C88C1A8C4314EAD4
:102B0000C211F9D0C01A0A0603D0C01E10BDC01AE7
:102B100010BD0A0401D0801E10BD0902FCD0401E69
:102B200010BD032A40F2308010F0030C00F0158035
:102B300011F8013BBCF1020F624498BF11F801CBC0
:102B400000F8013B38BF11F8013BA2F1040298BF25
:102B500000F801CB38BF00F8013B11F0030300F08F
:102B60006780083AC0F0088051F8043B083A51F8F1
:102B700004CBA0E80810F5E7121D5CBF51F8043B38
:102B800040F8043BAFF30080D20724BF11F8013BAB
:102B900011F801CB48BF11F8012B24BF00F8013B0D
:102BA00000F801CB48BF00F8012B7047431A28BF3B
:102BB0009A427FF6B6AF032A1044114440F22680B1
:102BC00010F0030F1EBF11F8013D521E00F8013D29
:102BD00010F0030F7FF4F6AF11F0030300F09F80B5
:102BE000083AC0F00B8051F8043D083A51F804CD82
:102BF00040F8043D40F804CDFFF7F3BF121D5CBF61
:102C000051F8043D40F8043DAFF30080D20724BFE3
:102C100011F8013D11F801CD48BF11F8012C24BF76
:102C200000F8013D00F801CD48BF00F8012C7047C5
:102C300010B5203AC0F00B80B1E81850203AA0E857
:102C40001850B1E81850A0E81850BFF4F5AF5FEA8B
:102C5000027C24BFB1E81850A0E8185044BF18C93E
:102C600018C0BDE810405FEA827C24BF51F8043BE5
:102C700040F8043B08BF7047D20728BF31F8023B39
:102C800048BF11F8012B28BF20F8023B48BF00F8CD
:102C9000012B704702F0FF0343EA032242EA02429B
:102CA00000F069B84FF0000200B51346944696460E
:102CB000203922BFA0E80C50A0E80C50B1F120014F
:102CC000BFF4F7AF090728BFA0E80C5048BF0CC0FD
:102CD0005DF804EB890028BF40F8042B08BF70475B
:102CE00048BF20F8022B11F0804F18BF00F8012BCD
:102CF0007047704770477047431A28BF9A427FF663
:102D000097AF104410F0030F11441EBF11F8013D9E
:102D1000521E00F8013D10F0030F7FF4F6AF103A99
:102D2000C0F00A8010B531E91850103A20E9185067
:102D3000BFF4F9AFBDE81040530724BF31E90810D4
:102D400020E9081044BF51F8043D40F8043D12F05A
:102D5000030F08BF7047D20728BF31F8023D48BFB4
:102D600011F8012C28BF20F8023D48BF00F8012CC3
:102D700070474FF000020429C0F0128010F0030CDD
:102D80003FF492AFCCF1040CBCF1020F18BF00F875
:102D9000012BA8BF20F8022BA1EB0C01FFF784BF89
:102DA0005FEAC17C24BF00F8012B00F8012B48BF6B
:102DB00000F8012B7047754600F028F8AE46050074
:102DC0006946534620F00700854618B020B5FFF746
:102DD00029FEBDE820404FF000064FF000074FF0FD
:102DE00000084FF0000B21F00701AC46ACE8C00929
:102DF000ACE8C009ACE8C009ACE8C0098D46704732
:102E00000446AFF300802046FFF7F9FD0048704705
:102E1000A8E5002001491820ABBEFEE7260002000D
:102E20007047002800DC4042704700002DE9F04167
:102E30000120002100263A4C2488DFF8E4C0ACF1E0
:102E4000040CBCF800C044EA0C44DFF8D8C094FB82
:102E5000FCF80CFB18454FF4616495FBF4F4DFF8C3
:102E6000C8C08CF800404FF4616495FBF4FC04FB8F
:102E70001C573C2497FBF4F4DFF8ACC08CF80140FD
:102E8000274C2488DFF898C0ACF1040CBCF800C0D3
:102E900044EA0C44DFF88CC094FBFCF420440FE0BF
:102EA000A0F5B770491C002207E0B0F5B77F00DA43
:102EB00005E0A0F26D10491C521C032AF5DB00BF8F
:102EC000B0F5B77FECDA4FEAE17C01EB9C7C4FEA8E
:102ED000AC0CB1EB8C0C01D0002300E001230022EC
:102EE0000AE0761C03EB830404EBC304DFF83CC068
:102EF0006444A45C001B521C03EB830404EBC30476
:102F0000DFF828C06444A45C8442EADBDFF818C020
:102F10008CF805108CF804608CF80300BDE8F08193
:102F2000086C0040805101007B0100205B01002003
:102F300038B5456804460146284612F0C0F9002815
:102F40002AD02068304A0F2819D006DC0B2824D05C
:102F50000C2810D00E2851D12FE0112802D028289B
:102F60004CD145E09268002A16D02146284601B08F
:102F7000BDE830401047214628465268F7E728460A
:102F800005F0D2FD0090406E0468684605F016FE1C
:102F9000002C01D02846A04738BD284605F0C4FDC6
:102FA0000090683005F020FD009803216C3005F09A
:102FB00023FD684605F002FE20E0E16848680968E4
:102FC0000D2902D0202913D105E0002810DD284664
:102FD0001DF0BFF906E0002804DD2846BDE83840B2
:102FE0001DF0B7B92846BDE8384002211DF0C7B929
:102FF000E06818B90021284600F0D1F92046BDE864
:10300000384012F087BD0000400700202DE9FF4145
:103010000AAF70CF002703958DE8D00000F003F8C9
:1030200004B0BDE8F081F0B585B00DF1280CBCE826
:10303000F0004FF0000C8DE8F01000F025F805B01E
:10304000F0BDF0B5044685B08069B4F90850668AD1
:103050000027CDE90265CDE900170490B4F90C0012
:10306000B4F91060C118B4F90A00B4F90E50104454
:1030700033462A4600F008F80546616800F0C4F9B6
:1030800005B02846F0BD0000F0B585B00C46DDE97E
:103090000D514C31DFF850C0DDE90A67CDE902C1BE
:1030A0002146CDE9006712F085FC040018D005F038
:1030B0003BFD10222946049012F006FB04983022B2
:1030C0000A493430FFF7B4FD084D04990C3D2868D7
:1030D000486604A805F072FD2868416820468847C4
:1030E00005B02046F0BD0000312F00084C0700203D
:1030F000F0B5044680688B4989B051F8205060686B
:1031000000287DD0052804D006287AD0122879D14D
:10311000AEE0E86900284FD095E80E008DE80F007A
:1031200004F110010FC909F007F9002655F826002F
:1031300007F0F4FFA169E8690A1A2169014460698E
:10314000304406F049FCA169E8690A1A2169014482
:10315000E069801B06F040FCE169E8690A1A6169D0
:1031600001442069304406F0E9FCE169E8690A1A83
:1031700061690144A069801B06F0E0FC761C022E08
:10318000D4DBA86807F0CAFFE069E9696669431AF9
:1031900020694218521E3144801C06F09DFDE169F1
:1031A000E869A2690B1A61690144101A401C921E59
:1031B00006F092FDEE6913E05FF0000655F8260078
:1031C00007F0ACFFE069831BA069821B606981196D
:1031D0002069304406F058FC761C022EEEDB0226F5
:1031E000D5E90301CDE900016169E06908444310B4
:1031F000A069891C821B2069304406F0B9FB02E0FB
:1032000089E012E08AE0D5E90501CDE90001E36932
:1032100060690121184401EB6001A0699B1E821BBB
:103220002069304406F0A4FB78E0206805F07CFCBF
:103230000490206814F03AF840B1A06808B100206A
:1032400008E00498006F28B1012003E00498406F63
:1032500000B10220049901EB8000C56E04A805F0BE
:10326000ADFC00231A462846216806F0A7F855E071
:10327000206805F059FC0490866EEEB3B0F95C70DE
:10328000A168D1B3032942D05FF0000100EB8101B6
:10329000406D0C6C07F058FF204607F03FFF05A873
:1032A00007F0E2F8BDF81410A88B0144ADF8141033
:1032B000BDF81810081AADF81800BDF81600801CEB
:1032C000ADF81600BDF81A00801EADF81A0004987B
:1032D0005E30B0F90220B0F9001005A807F0FBFD40
:1032E00004A805F06BFC022007F070FF304605F0E3
:1032F0001BFC3A4605A901E00BE006E0079006F04A
:103300009DF907A805F05AFC08E00121BEE702215B
:10331000BCE704A8F6E7206813F0EAFB09B0002038
:10332000F0BD00009C7604081CB504460020009007
:103330002346054A2B210190044805F031FF04493A
:103340000860084600681CBDE5480208F4600308F0
:1033500078020020044A0349116004494A6A48621D
:10336000104670477C070020400700204C070020D3
:1033700000294FF0100101D012F02BB811F083BFDB
:1033800038B50D46040009D005F0CEFB0090456528
:10339000684605F013FC204613F0A5F838BD4FF43D
:1033A00080720029114601D012F013B811F06BBFE2
:1033B00008B50023009300F001F808BD70B516466B
:1033C0000C46054619463046049A05F0DFFF0246D2
:1033D00021462846BDE8704000F03EB838B50C469E
:1033E000054605F0A1FB00900649846541666846E4
:1033F00005F0E4FB284613F07BFB284613F073F836
:1034000038BD00007C0700202DE9FF410E46050075
:103410004FF001041CD005F087FB0190876E01A8D6
:10342000009705F0CBFB3146684609F023FB78B1E5
:1034300000980024B84208D0284605F075FB01909A
:103440000099816601A805F0B9FB284613F04BF8F6
:1034500004B02046BDE8F081F8B515460C460600DC
:1034600013D005F061FB0090032C0BD800EB840017
:103470006C3005F0B9FA009800EB8400C566304660
:1034800013F031F8684605F099FBF8BD2DE9FF41CE
:103490000120A0490870A0490870A04807F054FE18
:1034A0004FF6FF7007F03AFE9D4800782A2844D076
:1034B0000EF04AFC9A490870084600782A2804D081
:1034C0000846007804B0BDE8F08196480EF00CFB89
:1034D00093490870084600782A2802D008460078E8
:1034E000F0E79049B1F8421008040FF0B3F98C49A5
:1034F0000870084600782A2802D008460078E1E7DC
:103500004FF400600EF08CFA854908700846007888
:103510002A2802D008460078D4E700200FF0B4F93A
:103520007F490870084600782A2802D008460078AB
:10353000C8E77D49002026F0C1F83222AA217BA0ED
:1035400006F05AF88348FFF705FF12F0F3FB074631
:1035500040F60100002102221E23CDE90072CDE9D0
:103560000210282264219620FFF75DFD7A49086049
:103570006A4979480068FFF703FF78A17648006838
:10358000FFF742FF12F0D6FB07464FF4026000211E
:1035900002221E23CDE90072CDE902102822642107
:1035A0004FF49670FFF73FFD6E4908605B496D4828
:1035B0000068FFF7E5FE6CA16A480068FFF724FF8A
:1035C00012F0B8FB07466A4913F050F901E006F023
:1035D00023FB5048007818B14F4800780028F6D1F6
:1035E0005D48006812F0CAFA5E48006812F0C6FA38
:1035F0000020594908605B49086005F089FD45488D
:103600000078002873D1484926F058F859A15B4842
:1036100026F01CF95A49087008460078002868D13D
:103620000A22052157A005F0E7FF3E4991F8401016
:10363000584A52F8210005F05FFF1E22052156A0CE
:1036400005F0DAFF3748007D801C012101FA00F403
:103650003448C089401C604332490A7A01219140B4
:1036600000FB01F5284628F0E9FA07464FF09341A0
:1036700028F09AF906460621304605F0FEFE4BA0DA
:1036800005F03AFF322205214AA005F0B5FF0321DB
:103690004C48008805F0C9FE4BA005F02DFF4622DE
:1036A00005214BA005F0A8FF1E49486B0A2105F033
:1036B000BCFE5A2205214AA005F09EFF1949B1F827
:1036C0004200052105F0B1FE6E22052146A005F05D
:1036D00093FF144991F82800022105F0A6FE00226C
:1036E00046A148A007F0F0FB0D480078EAE60CE0A0
:1036F000FFE7002241A147A007F0E6FB00210846B2
:1037000025F0DCFF1E49087000E000BF0448007887
:10371000D8E600001400002015000020F05F030828
:1037200056010020140D0020580D0020D097D09095
:10373000D093D0A0D0A3D097D09AD09020D0A12061
:10374000534420D09AD090D0A0D0A2D0AB203F201C
:1037500000000000F130000838000020D094D09024
:10376000000000003C000020D09DD095D0A20000B9
:103770001154020830003A0000000000B01100208F
:103780005A01002020434152442054595045203AC8
:1037900020000000180000202053445F43415244A1
:1037A0002053495A45203A2020000000204D42591C
:1037B0005445000020534543544F522053495A4525
:1037C000203A200054010020202042595445000096
:1037D0002052524F4455435420534E203A2000006B
:1037E00020524341203A2000204D414E554641434E
:1037F0005455524552204944203A20004D65737378
:103800006167650053442063617264206973204FCF
:103810004B21000053442063617264206973206E61
:103820006F7420696E697469616C697A6500000063
:1038300000BFFEE710B501200549087000200549CA
:103840000870012000F070FB00F072FA10BD00005B
:103850004C0000204F00002070B5FE4880780C28F6
:103860007ED2DFE800F07D0625367D62C1FEFD7D5B
:10387000FCFB4FF42070F849086006200871022014
:103880004871F6480178F4488171F4484178F2486B
:10389000C171F248C178F0480172F0480179EE48F0
:1038A0004172EE484179EC48817200F0DFFB28E27A
:1038B000E8484079E9490870E64880794870E54869
:1038C000C079C870E348007A0871E248407A4871CC
:1038D00017E240F28220E049086002204871E04887
:1038E0000178DD488171DF480178DB48C171DE482D
:1038F0000178D9480172DD480178D7484172DC4827
:103900000068010ED4480173D9480068010CD24800
:10391000C172D7480068C1B2CF4881720820CE4931
:103920000871084600F0A2FBEBE14FF08040008CEC
:1039300040F010004FF0804108840846008C40F0B1
:10394000010008840120C9490860CA4800680028AD
:1039500049D0C948007828B1C7480078012800E05C
:10396000CEE124D111200BF0D9FD002400E0641C2D
:10397000C2488442FBDBBE200BF0D0FD04200BF0DC
:10398000AFFDBF4800880BF0ABFD01200BF0A8FD98
:10399000F0200BF0A5FD00200BF0A2FD00200BF0A5
:1039A0009FFD0220B44908700020B649087000202D
:1039B000B54908804FF40161AE48006812F0D0F9B3
:1039C0000546B2492846FFF709FD284613F01AF8C4
:1039D00040F61101A748006812F0C2F90546AC494B
:1039E0002846FFF7FBFC8CE1A348007818B1A248F9
:1039F0000078012824D111200BF090FD002400E074
:103A0000641C9E488442FBDBBE200BF087FD042033
:103A10000BF066FD9A4800880BF062FD01200BF068
:103A20005FFDF0200BF05CFD00200BF059FD002045
:103A30000BF056FD02209049087000209149087053
:103A400000209149088083484079854908600846EC
:103A5000006800285DD04FF0804003E04FE14DE169
:103A60004BE1C0E0008B40F004004FF08041088340
:103A70000846808940F0020088812320888505203F
:103A800008877448C07978490860086800EBD071ED
:103A90004C10204628F0BAF806467E4927F084FFED
:103AA0007D49086073480068002831D040F6130152
:103AB0007048006812F054F90546284612F05AFC86
:103AC00040F614016B48006812F04AF90546284692
:103AD00012F0C3F840F617016648006812F040F98A
:103AE00005466148016828460CF00DFC284613F095
:103AF000B2F840F616015F48006812F031F9054649
:103B00005948016828460FF0F9FC284612F0B2F82F
:103B100059E050488079534908604FF08040008B4D
:103B200020F004004FF0804108830846808920F08F
:103B3000020088814B48008800EB80004FF47A71C6
:103B4000A1EB4000C90688854648008800EB80004C
:103B500040F2CA31A1EB4000490708874548006898
:103B600088B340F617014348006812F0F9F805469B
:103B7000284612F0FFFB40F616013E48006812F09E
:103B8000EFF80546284612F068F840F61301394868
:103B9000006812F0E5F805463248016828460CF046
:103BA000B2FB284613F057F840F61401314800687C
:103BB00012F0D6F805462B48016828460FF09EFC07
:103BC000284612F057F82B48006858B140F6180103
:103BD0002848006812F0C4F80546214801682846C4
:103BE00001F0E3FC8DE04FF08040008C20F01000ED
:103BF0004FF0804108840846008C20F001000884C2
:103C000000202649087026490860184908601948AC
:103C10000068002870D01848007818B1164800785D
:103C200001284DD111200BF079FC002400E0641C28
:103C300012488442FBDBBE200BF070FC04200BF02A
:103C40004FFC0F4800880BF04BFC01200BF048FCA8
:103C5000F02027E068E1002058E1002075010020F5
:103C600000060020040600200806002010060020A0
:103C7000186400401C0600205801002020BF0200EC
:103C8000AE010020590100202414004035560208DE
:103C9000F1300008000048420C0600201406002005
:103CA000180600200BF01CFC00200BF019FC002073
:103CB0000BF016FC02201749087000201649087006
:103CC00000201649088040F611011548006812F0DE
:103CD00047F8054613492846FFF780FB284612F0AF
:103CE00091FE4FF401610E48006812F039F8054664
:103CF0000D492846FFF772FB03E002E001E000E017
:103D000000BF00BF0948006840F002000749086092
:103D100070BD00005801002059010020241400400B
:103D20001C06002035560208F130000814640040DB
:103D300030B57448807B042804D0062844D00B2872
:103D400075D1C9E0002070490860704908606D486D
:103D5000007C08606B48407C096841EA00206B49A0
:103D600008606848807C096841EA0040674908604B
:103D70006448C07C096841EA00606449086003F057
:103D8000B7FB62490868C11700EB5151C1F3C72462
:103D90005E490868C11700EB5151C912B0EBC1214F
:103DA00001D0601CC4B22146594803F02DFB40F2FB
:103DB00072205849086002200871487167215548EF
:103DC000817100F053F994E0504800684E49096849
:103DD000401A082831D34C4800684D4A81180822FF
:103DE0004848103003F04CFB47480068083046490B
:103DF000086040F27220474908600220087148714B
:103E000067214448817100F031F93F480068F02192
:103E1000B0FBF1F201FB120030BB3F48806810F4A8
:103E2000007F05D04FF000703B4908611CE05FE067
:103E30004FF400703849086116E034480068324B8E
:103E40001B68C21A30480068314BC1182D48103029
:103E500003F016FB2D4800682B490968401A2A49CF
:103E60000968084428490860284800682649096804
:103E7000884230D125480068011F254824F07CFC89
:103E80000546224800682249084450F8040CA8421C
:103E90000FD140F272201F4908600220087148715A
:103EA00063211C48817100F0E1F801201B49087072
:103EB00011E01B48006940F080001949086140F298
:103EC0007220144908600220087148716521114868
:103ED000817100F0CBF800BF4FF422700D490860EB
:103EE0000120087102204871084600F0BFF800E088
:103EF00000BF00BF0B48006840F01000094908608F
:103F000030BD000068E100205C0600206006002053
:103F10000000040858E1002000100140580600206D
:103F200000200240146400404D4901EB0011096873
:103F300001F0020102295AD0494901EB00118968B8
:103F400000EB4002474B03EB82021171444901EB45
:103F5000001189680A0A00EB400103EB81014A71F4
:103F60003F4901EB001189680A0C00EB400103EBAB
:103F700081018A713A4901EB00118968090E00EB51
:103F8000400203EB8202D171354901EB0011C9688F
:103F9000CAB200EB400103EB81010A72304901EB28
:103FA0000011C9680A0A00EB400103EB81014A7263
:103FB0002B4901EB0011C9680A0C00EB400103EB2F
:103FC00081018A72264901EB0011C968090E00EBD4
:103FD000400203EB8202D172214901EB00114968D2
:103FE00001F00F0100EB400203EB8202D1701C498B
:103FF00001EB0011096840F2FF7202EA515100EB37
:104000004002184B23F82210154901EB00114968B2
:10401000090A00EB400203EB8202917030B11249B1
:10402000096821F01001104A116005E00E49096885
:1040300021F002010C4A116040B10B49091F0968C7
:1040400041F02001084A121F116007E006490839B3
:10405000096841F02001044A083A116070470000E5
:10406000B065004068E100201464004010B50246CD
:1040700000233048006800F08060B0F1806F01D10B
:10408000002113E02B48006800F00060B0F1006FE1
:1040900001D101210AE02748006800F08050B0F10A
:1040A000805F01D1022101E0022010BD108844058B
:1040B000214800EB011004601F4800EB011040682C
:1040C00020F00F041C4800EB011044601A4800EB7C
:1040D0000110406814792043174C04EB0114606010
:1040E000107A0406D07944EA0044907944EA00202A
:1040F000547940EA0403104800EB01108360107B00
:104100000406D07A44EA0044907A44EA0020547AC3
:1041100040EA0403084800EB0110C360064800EBC6
:104120000110006840F00104034800EB0110046036
:104130000020BAE708640040806500407CB5214C4F
:104140000546216831F8220F4A8D104408804888BE
:10415000CA8D10444880284606F076F92168498CBB
:10416000ADF800104618284608F020FB3044401EE9
:10417000ADF8040006F0B4F92168898CADF802109E
:104180000844401EADF80600684612F023FF04E024
:10419000284603F0B9F912F09BFE0028F8D10A2D49
:1041A00004D0BDF804002168401C4884206830F821
:1041B000221F428D891A01804188C28D891A41804F
:1041C0007CBD0000940600200A480B490068038962
:1041D00090F8702053430B80438953434B8083896D
:1041E0005B1C53435B1E8B80C089401C5043401EA8
:1041F000C880704794060020C40A002070B52A25A4
:104200004FF4803400E0641E24B180200DF09CF94E
:104210000028F8D014B90325284670BD40F2FF509D
:104220000DF03AF82846F8E72DE9F04106462A272E
:104230004748456B01E04648456B15F0450FFAD0FD
:1042400015F0040F06D0032704200DF025F838469A
:10425000BDE8F08115F0010F05D0012701200DF018
:104260001BF83846F4E70DF069F9B04202D0102788
:104270003846EDE740F2FF500DF00EF800200DF04B
:1042800047FA04463348044201D13846E0E714F0C7
:10429000004F01D01C20DBE714F0804F01D0092033
:1042A000D6E714F0005F01D00A20D1E714F0805F58
:1042B00001D00B20CCE714F0006F01D00C20C7E731
:1042C00014F0806F01D00D20C2E714F0807F01D080
:1042D0000E20BDE714F4000F01D00F20B8E714F44E
:1042E000800F01D01020B3E714F4001F01D011207B
:1042F000AEE714F4801F01D01220A9E714F4002FB8
:1043000001D01320A4E714F4802F01D014209FE7DC
:1043100014F4003F01D015209AE714F4803F01D037
:10432000162095E714F4004F01D0172090E714F4FD
:10433000804F01D018208BE714F4005F01D01920C2
:1043400086E714F0080F01D01A2081E738467FE78E
:104350000080014008E0FFFD70B52A250F48446B3E
:1043600001E00E48446B14F0450FFAD014F0040F2E
:1043700005D0032504200CF08FFF284670BD14F0F3
:10438000010F05D0012501200CF086FF2846F5E736
:1043900040F2FF500CF080FF2846EFE7008001401C
:1043A00070B52A250B48446B01E00A48446B14F0B1
:1043B000450FFAD014F0040F05D0032504200CF0AB
:1043C0006BFF284670BD40F2FF500CF065FF284699
:1043D000F8E70000008001402DE9F04106460F4655
:1043E0004FF02A082248456B01E02148456B15F043
:1043F000450FFAD015F0040F07D04FF00308042042
:104400000CF04AFF4046BDE8F08115F0010F06D0E0
:104410004FF0010801200CF03FFF4046F3E70DF09C
:104420008DF8B04203D04FF010084046EBE740F261
:10443000FF500CF031FF00200DF06AF9044614F42F
:10444000604F03D1200C38804046DCE714F4005F55
:1044500001D01320D7E714F4804F01D01020D2E709
:1044600014F4004F01D00F20CDE74046CBE7000009
:104470000080014070B52A264FF480350F48446B08
:1044800002E06D1E0D48446B14F0450F01D1002D64
:10449000F7D115B114F0040F05D0032604200CF059
:1044A000FBFE304670BD14F0400F05D02A26402098
:1044B0000CF0F2FE3046F5E73046F3E700800140AD
:1044C0001CB50020009001900548064A08210368A9
:1044D000054804F065FE05490860084600681CBDF3
:1044E00080020020B557020814600308640200200F
:1044F00010B586B011F01EFC0446654840F6070171
:1045000000220223CDE90043CDE9022104904FF4BB
:1045100082734FF4CD720F213C2011F081F95D4977
:1045200008605D495B48006811F0B4F9412040F62D
:1045300018020023CDE9032002930590032055497A
:1045400009684B231A46CDE900104621642008F083
:10455000ACFC5249086052A256495048006808F025
:10456000E1FB55494D48006808F031FD3E203821F7
:1045700040F60E020023CDE90232CDE904100320FB
:104580004449096841234222CDE9001000216420FA
:1045900008F08BFC4949086049A24D49474800682A
:1045A00008F0C0FB44494548006808F010FD0821A8
:1045B0004248006808F039FD3D20382140F61502D8
:1045C0000023CDE90232CDE9041003203149096806
:1045D00041234222CDE900100021142008F065FC9F
:1045E0003C4908603CA23F493A48006808F09AFB01
:1045F00031493848006808F0EAFC0821354800686D
:1046000008F013FD3E20382140F617020023CDE9C3
:104610000232CDE9041003201E49096841234222D9
:10462000CDE900104621142008F03FFC2E49086017
:104630002EA232492C48006808F074FB1E492A4813
:10464000006808F0C4FC08212748006808F0EDFC69
:10465000302040F616020023CDE903200293059096
:1046600003200C4909683A231A46CDE90010C821F5
:10467000142008F01AFC2249086014A2214920489D
:10468000006808F04FFB0348006806B010BD00004A
:1046900075610208800200208766DF009402002016
:1046A000D091D183D0B4D0B8D0BBD18CD0BDD0B84C
:1046B000D0BA0000A8880308F05F03088402002035
:1046C000D0A2D0B0D0B9D0BCD0B5D180000000000D
:1046D000401D040888020020D092D180D0B5D0BC03
:1046E000D18F0000F8A503088C020020534420D08D
:1046F000BAD0B0D180D182D0B000000068410408A7
:10470000900200202C0B040870B586B072B6002011
:1047100006F0C4FC8648006800287CD111F00AFB32
:10472000064684484FF4006100220223CDE900636D
:10473000CDE9022104904FF482734FF4CD720F2122
:104740003C2011F06DF87A4908607B497848006890
:1047500011F0A0F83E20382140F617020023CDE9E1
:104760000232CDE904100320714909684123422235
:10477000CDE900100021F02008F097FB6F49086098
:104780006F496E48006808F022FC6EA270496B48C1
:10479000006808F0C7FA08216848006808F045FC7E
:1047A0003E20382140F604020023CDE90232CDE953
:1047B000041003205E49096841234222CDE900101C
:1047C00000214FF4AA7008F070FB624908605C4950
:1047D0006048006808F0FBFB5FA261495D48006823
:1047E00008F0A0FA08215B48006808F01EFC3E2093
:1047F000382140F615020023CDE90232CDE904103C
:1048000003204B49096841234222CDE900105A2177
:104810004FF4AA7000E07FE008F047FB51490860C0
:1048200047495048006808F0D2FB4FA252494D4812
:10483000006808F077FA08214A48006808F0F5FB9C
:10484000302040F605020023CDE9032002930590B5
:104850000320374909683A231A46CDE90010C821D8
:104860004FF4AA7008F021FB4449086037A244497C
:104870004248006808F056FA11F05CFA064630200B
:1048800040F616020023CDE9032002930590032091
:104890003A231A46D621CDE90060002008F005FB36
:1048A0003849086029A238493648006808F03AFAC1
:1048B00011F040FA0646182040F618020023CDE910
:1048C000032002930590032022231A460F21CDE9ED
:1048D00000600A2008F0E9FA2C4908602C4800889A
:1048E0002B49091F098840EA01452A4800882949BF
:1048F000091F098840EA0144A54206D913A22649A6
:104900002248006808F00EFA0AE010A223491F4866
:10491000006808F007FA03E00548006812F09BF908
:1049200000F0A0FE01201E49087062B606B070BDFE
:1049300038030020216E02088080FF005803002009
:10494000F05F0308D0A4D0BED182D0BE000000002A
:1049500018F9030840030020546F756368000000D5
:10496000542F040844030020D09AD180D0B0D181C4
:10497000D0BAD0B800000000F0E4030848030020DB
:10498000DCD2030854030020A0BC0308500300201D
:10499000086C00401C280040D09103083C8D03089F
:1049A000AD0100201CB50020009001900548064A8A
:1049B00008210368054804F0F3FB05490860084630
:1049C00000681CBD80020020C9700208F866030858
:1049D0001C0600201CB50020009001900548064AE6
:1049E00007210368054804F0DBFB05490860084619
:1049F00000681CBD800200209D5C0208346603082C
:104A0000EC05002010B5044614F0704F02D00948A0
:104A1000044201D104B104E040F20E2106A023F0CB
:104A2000ACF814F0805F02D01048046001E0104838
:104A3000446010BD0000F0EF2E2E5C53544D333215
:104A4000463130785F5374645065726970685F44B2
:104A500072697665725C7372635C73746D3332660F
:104A60003130785F646D612E630000000404024001
:104A70000000024070B504460D46244884422AD006
:104A800022481430844226D020482830844222D044
:104A90001E483C3084421ED01C48503084421AD0FC
:104AA0001A486430844216D018487830844212D0B4
:104AB000174884420FD01648143084420BD0144853
:104AC0002830844207D012483C30844203D010483A
:104AD0005030844200D104E040F229110DA023F0AF
:104AE0004CF80DB1012D00D104E04FF4957109A0EF
:104AF00023F043F825B1206840F00100206004E075
:104B000020684FF6FE710840206070BD080002402A
:104B1000080402402E2E5C53544D33324631307817
:104B20005F5374645065726970685F44726976653A
:104B3000725C7372635C73746D3332663130785FAC
:104B4000646D612E6300000070B5044600250026E8
:104B5000012C7DD0022C7BD0042C79D0082C7ED067
:104B6000102C7CD0202C7AD0402C78D0802C76D081
:104B7000B4F5807F73D0B4F5007F70D0B4F5806F4A
:104B80006DD0B4F5006F6AD0B4F5805F67D0B4F52E
:104B9000005F64D0B4F5804F61D0B4F5004F5ED0B3
:104BA000B4F5803F5BD0B4F5003F58D0B4F5802F0A
:104BB00055D0B4F5002F52D0B4F5801F4FD0B4F5C6
:104BC000001F4CD0B4F5800F49D0B4F5000F46D08B
:104BD000B4F1807F43D0B4F1007F40D0B4F1806F56
:104BE0003DD0B4F1006F3AD02748844237D0A4F1C9
:104BF0008050801E33D0801E31D0001F2FD0083847
:104C00002DD010382BD0203829D0403827D01E483E
:104C1000FF30844223D01D48844220D01C48844267
:104C20001DD01C4884421AD0B4F1102F17D04FEA7F
:104C3000F030844213D01848844210D01748844280
:104C40000DD0174884420AD01648844207D000E0AD
:104C500005E01548844202D01448844200D104E0A3
:104C600040F2B71112A022F088FF14F0805F02D04A
:104C70001C48066801E01C480668264201D0012550
:104C800000E00025284670BD010000100002001061
:104C90000004001000080010004000100080001008
:104CA00000000110000002100000041000000810B5
:104CB0002E2E5C53544D3332463130785F5374643A
:104CC0005065726970685F4472697665725C737270
:104CD000635C73746D3332663130785F646D612E5E
:104CE00063000000000402400000024070B504466A
:104CF0000D461646274884422AD02648143084425E
:104D000026D024482830844222D022483C30844295
:104D10001ED02048503084421AD01E48643084424D
:104D200016D01C487830844212D01B4884420FD0E1
:104D30001948143084420BD017482830844207D0D9
:104D400015483C30844203D013485030844200D18F
:104D500004E040F2491111A022F00FFF35F00E00DF
:104D600001D105B104E04FF4A5710CA022F005FFBC
:104D70000EB1012E00D104E040F24B1107A022F049
:104D8000FCFE1EB120682843206002E02068A84392
:104D9000206070BD08000240080402402E2E5C53C3
:104DA000544D3332463130785F53746450657269C4
:104DB00070685F4472697665725C7372635C737469
:104DC0006D3332663130785F646D612E63000000B0
:104DD00070B505460C4600265E4885422AD05D48DF
:104DE0001430854226D05B482830854222D059486D
:104DF0003C3085421ED05748503085421AD0554825
:104E00006430854216D053487830854212D05248DB
:104E100085420FD05048143085420BD04E48283080
:104E2000854207D04C483C30854203D04A48503038
:104E3000854200D103E0CF2148A022F09EFEA06869
:104E4000102801D0A06800B903E0D02143A022F0CF
:104E500094FEE06820B1E068B0F5803F00D203E046
:104E6000D1213EA022F089FE2069402801D020698E
:104E700000B903E0D22139A022F07FFE60698028CA
:104E800001D0606900B903E0D32134A022F075FE9F
:104E9000A06938B1A069B0F5807F03D0A069B0F5F2
:104EA000007F00D103E0D4212CA022F066FEE0694F
:104EB00038B1E069B0F5806F03D0E069B0F5006FFC
:104EC00000D103E0D52125A022F057FE206A20283A
:104ED00001D0206A00B903E0D62120A022F04DFEC7
:104EE000606AB0F5405F09D0606AB0F5005F05D038
:104EF000606AB0F5805F01D0606A00B903E0D72135
:104F000016A022F03AFEA06AB0F5804F01D0A06A48
:104F100000B903E0D82111A022F02FFE2E6847F639
:104F2000F0708643216AA0680843216908436169DB
:104F30000843A1690843E1690843616A0843A16A1B
:104F4000084306432E60E06868602068A8606068D7
:104F5000E86070BD08000240080402402E2E5C5339
:104F6000544D3332463130785F5374645065726902
:104F700070685F4472697665725C7372635C7374A7
:104F80006D3332663130785F646D612E63000000EE
:104F900030B58BB005460C461348FFF733FD0021B2
:104FA0001248FFF767FD124800900195002002901B
:104FB000A0080390002004908020059080000690B7
:104FC00080000790002008904FF4005009900020C6
:104FD0000A9069460548FFF7FBFE01210348FFF7E9
:104FE00049FD0BB030BD000000F000104404024049
:104FF0008080014030B58BB005460C461348FFF762
:1050000001FD00211248FFF735FD1248009001957F
:1050100010200290A00803900020049080200590AA
:105020008000069080000790002008904FF4005008
:10503000099000200A9069460548FFF7C9FE012142
:105040000348FFF717FD0BB030BD000000F0001063
:1050500044040240808001402DE9FC4100282ED00C
:10506000112916D0132910D080460C4603F05CFDA0
:10507000009000F0DEFA0546684603F09FFD2046EA
:105080001EF0F4FD064600241CE0BDE8FC4100F0E3
:1050900082BABDE8FC4100F067B92146404600F005
:1050A000CBFA019000781EF0E1FDC7B201A803F031
:1050B00085FDB74205D12146404600F076FABDE8AD
:1050C000FC81641CAC42E8DBF9E7F8B50C4605004E
:1050D00013D0002C11D003F027FD0090C66B68465A
:1050E00003F06CFD2046FDF7FDFC421C21463046D6
:1050F00003F088FD284611F0F6F9F8BD2DE9FF41CF
:1051000045680446284603F00FFD0190D0F88860FA
:1051100001A803F053FD0EB1012700E0002721464E
:10512000284610F0CCF8002855D020680F2856D01B
:1051300006DC0B2862D00C2843D00E282AD173E05D
:10514000112839D0212802D0262823D116E0E06882
:10515000416800291EDD00680D281BD1304609F08A
:105160009CFB002806DB304609F097FB01462846E9
:1051700000F01BFA284600F077F86EE0E06801289E
:1051800009D00A2802D00B286AD111E00A2128464A
:1051900011F069FA64E0304609F07FFB00285FDB1C
:1051A000304609F07AFB0146284600F0FEF954E04B
:1051B000284600F059F853E0FFB9E068007A90BB48
:1051C0004EE0E06848B1007A08B1012100E0022118
:1051D000284611F048FABDE8FF810321F8E72E4682
:1051E000284603F0A1FC0290D0F88400056802A8CC
:1051F00003F0E4FC0DB13046A84731E0284603F047
:1052000093FC0090C06B03F03DFD0098D0F888003F
:1052100010F0B4FC0098D0F8940003F0BDFB684691
:1052200003F0CCFC1CE010E0E0684168002917DDC9
:10523000016809290DD00A2912D01B2910D0202974
:1052400003D02846FFF708FFC5E7284600F098F886
:1052500006E010F09FFDB04202D1284611F0D2FBCB
:10526000204610F057FCB6E738B5040011D003F023
:105270005BFC0090D0F8880040B110F07FFC0099F2
:105280000020C1F88800204611F02DF9684603F08F
:1052900095FC38BDF0B585B0B0F90850468A8469F0
:1052A0000296CDE903540027CDE90017B0F90C10A0
:1052B000B0F91050B0F90E40B0F90A00194410448A
:1052C0002B46224600F002F805B0F0BD2DE9FF4163
:1052D0000C461D46DDE90D71DDE90B366C31DFF85A
:1052E00080E0DDF828C0CDE900C3CDE902E14FF050
:1052F000FF33214610F05EFB04002DD003F014FCB8
:1053000010223946009010F0DFF900983822154934
:1053100080F88C604C30FDF78BFC124E0098361FE5
:105320003168C0F88410002180F89010C5862046AE
:1053300000F05EF9684603F041FC03F0A0FC05466E
:10534000204603F0F1FB0090C563684603F036FC8D
:10535000306841682046884704B02046BDE8F081A7
:10536000FD5000080C08002010B5044600F006F9B6
:10537000010000D0411E2046BDE8104000F015B9E4
:105380002DE9F14F9EB01E9800287CD003F0CCFB95
:1053900008901E9810F0F9FD1A900898B0F9367030
:1053A00090F890101991C16B179190F88C90B0F90A
:1053B0003410079100F03DF9824608980BACB0F824
:1053C0008E101591B0F982100A91C16C0991D0E943
:1053D0000012CDE90512D0F894B0002100EB810253
:1053E000126D44F82120491C0329F7D300210EAD8A
:1053F00000EB8102D26D45F82120491C0329F7D327
:10540000002111AE00EB8102126F46F82120491CE9
:105410000329F7D308A803F0D1FB1E9810F047FD2D
:1054200003F082FB1490D0F8008014A803F0C6FBB0
:105430004FEA284042420FFA88F0414205A805F0A1
:105440004AFD5FEA897003D5BDF81600C01B01E074
:10545000BDF81A00ADF816001E9810F028FD0146A0
:105460001A98CDE9000702220292BDF91630BDF963
:105470001420002009F0A5F980465FEAC97009D020
:105480004046199900E076E009F01EFC01214046F3
:1054900009F062FB002708E03946179803F04FFC3B
:1054A0000146404609F051F87F1C5745F4D30027C8
:1054B000394654F82720404609F073FB7F1C032F20
:1054C000F6D30024214655F82420404609F080FCFC
:1054D000641C032CF6D30024214656F824204046B1
:1054E00009F0D7FB641C032CF6D35FEA0B001ED037
:1054F00003F01AFB30F8025B00240126169011E03D
:10550000169804F0070100EBD40006FA01F10078C8
:10551000084201D0012200E000222146404609F065
:1055200068FB641CAC42EBDB16A803F047FB40466B
:10553000159909F08CFB4046099909F046FB404655
:105540000A9909F035FC404611F05CFA40461E9974
:1055500009F08FFB4046079909F0CEFB01211E9808
:1055600011F081F81E9803F0DFFA0890C0F88880E7
:1055700008A803F023FB1FB0BDE8F08F38B5002466
:1055800038B103F0D1FA0090B0F93440684603F026
:1055900015FB204638BD10B50446FFF7EFFF411C50
:1055A0002046BDE81040AFF3008038B50C4605003A
:1055B00019D003F0B9FA009000F03BF800B1401E9A
:1055C000844200DD04460098B0F93410A1420BD0AB
:1055D0008486684603F0F2FA284610F084FF04211E
:1055E000284611F040F838BD684603F0E7FA38BDA8
:1055F000F8B5044603F098FA01460090B0F9380077
:1056000010B9C86C04F0E0FF0099CA6AB1F98030A3
:10561000126800EB43001618084611F0CCFC054652
:10562000684603F0CBFA32462946204611F099FA33
:10563000F8BDC06B03F077BB38B50D46002403F00E
:1056400073FA0090C06B294603F079FB0546684663
:1056500003F0B4FA1DB1284603F066FA044620466A
:1056600038BD00002DE9F041012400254FF000086D
:105670002F4800882E49091F098840EA01402D491A
:1056800090FBF1F004440FE0A4F5B7746D1C002604
:1056900007E0B4F5B77F00DA05E0A4F26D146D1CE5
:1056A000761C032EF5DB00BFB4F5B77FECDAE91703
:1056B00005EB91718910B5EB810101D0002700E065
:1056C000012700260AE008F1010807EB870000EB3C
:1056D000C70019490844805D241A761C07EB87002F
:1056E00000EBC70014490844805DA042EBDB13497E
:1056F0004D7181F80480CC70114805F025FD0F49EB
:10570000C87802230022052103F092FE0DA003F0C9
:10571000F3FE0A490879022103F087FE0AA003F08C
:10572000EBFE06494879022103F07FFEBDE8F081D7
:105730001C280040805101005B0100207501002001
:10574000787604083A0000003A32300070470000D2
:105750002DE9FC5F15460746DFF89C802844019040
:10576000D8F800001C460E46C06E01EB04094946FD
:10577000426801989047781B0090D8F8000049468D
:10578000C06E426800989047D8F8000006EB050B01
:1057900007EB0409C06E5946426848469047D8F85E
:1057A0000000A6EB050A5146C06E42684846904785
:1057B000002C1ED0D8F80000361B4546C06E31467E
:1057C00042680198904728683146C06E4268009848
:1057D000904728683C1B5946C06E42682046904757
:1057E00028685146C06E426802B02046BDE8F05FAE
:1057F0001047BDE8FC9F00009406002070B50546E8
:105800000C46611F621D284604F098F9691F6A1D45
:10581000204604F0E1F804222146284603F0FEFF6A
:1058200070BD30B58DB004460D46032005F0BCFCBC
:105830000020ADF804000520ADF80600ADF8080022
:105840000021ADF80A100A20ADF80C000521ADF8D2
:105850000E100F20ADF810000021ADF8121014202A
:10586000ADF814000521ADF816100F20ADF81800A2
:105870000A21ADF81A101420ADF81C000F21ADF864
:105880001E100F20ADF820001421ADF822100A20C0
:10589000ADF824000F21ADF826100520ADF8280042
:1058A0001421ADF82A100020ADF82C000F21ADF81E
:1058B0002E100520ADF830000A21ADF832106FF03F
:1058C0007F4005F02BFC2B4622460C2101A804F05A
:1058D000CFF90DB030BD70B586B005460E46144602
:1058E000032005F061FC0020ADF80000ADF80200D7
:1058F0000520ADF804000021ADF80610601D00B2CF
:10590000ADF8080004EB440001B2ADF80A10052020
:10591000ADF80C0004EB4400400001B2ADF80E10ED
:105920000020ADF8100004EB4400400001B2ADF8D7
:10593000121020B2ADF8140004EB440001B2ADF82F
:1059400016106FF07F4005F0E9FB33462A4606212A
:10595000684604F08DF906B070BD70B586B0054696
:105960000E461446032005F01FFC601D00B2ADF882
:1059700000000020ADF8020020B2ADF804000021C4
:10598000ADF806100020ADF8080004EB440001B2A9
:10599000ADF80A1020B2ADF80C0004EB4400400052
:1059A00001B2ADF80E10601D00B2ADF8100004EBAE
:1059B0004400400001B2ADF812100520ADF814000B
:1059C00004EB440001B2ADF816106FF07F4005F013
:1059D000A5FB33462A460621684604F049F906B07D
:1059E00070BD2DE9FC470E465FEA000978D003F050
:1059F0009BF8009090F85470D0F85880456BC46CB8
:105A0000684603F0DBF8B8F1000F04D03146484691
:105A10004246904761E0122E18D006DC082E43D093
:105A2000102E3CD0112E06D112E0132E21D01D2EA7
:105A300043D01E2E3DD0202E4FDB17B1484613F029
:105A400034FBB1B2484619F083FD60B3611C27E016
:105A50004DB3284603F068F805462146019005F04D
:105A60000FFE4419204605F0C5FD014623460122DC
:105A700010E0C5B1284603F057F8054621460190CD
:105A800005F0FEFD4419204605F0B4FD014623460D
:105A90004FF0FF32484612F098FD01A81BE0611E4E
:105AA000484600F0F0FA18E0BCB1611E484600F02C
:105AB000EAFA484613F0F9FA0FE0484603F034F8E2
:105AC0000090012F0ED0012180F854102146484645
:105AD00000F0D9FA684603F071F8484610F003FD6B
:105AE000BDE8FC87002180F85410F3E7FEB5446858
:105AF0000546204611F0DAFB0646294620460FF0FF
:105B0000DEFB002834D028680E283DD004DC0B28AA
:105B10002FD00C284AD116E00F2825D0A0F5807090
:105B2000133843D1204610F06DFE204600211BF0B3
:105B300009FF204602F0F8FF0190C06F002110F02D
:105B400047FE01A81DE0E86860B1017A29B101684B
:105B5000204600F009F9012100E00221204610F062
:105B600082FD23E00321F9E7012120461BF0EAFE34
:105B7000FEBD204602F0D8FF0090343002F034FF22
:105B8000684603F01BF811E086B1E8684168002917
:105B90000CDD0168092909D00A2907D00D2905D093
:105BA0001B2903D02046FFF71CFFFEBD28460FF03F
:105BB000B1FFFEBDF0B587B00DF1300EBEE8F010BC
:105BC0004FF0000E8DE8F05000F028F807B0F0BD5F
:105BD000F0B587B004460DF1080CD4E90567B0F9BB
:105BE0000850408AACE8E1000020CDE90010B4F98B
:105BF0000C00B4F91060C118B4F90A00B4F90E50E1
:105C0000104433462A4600F009F8050002D0618AA4
:105C100000F0FCF907B02846F0BD00002DE9FF4177
:105C20000D46DDE90D640F9FDDE90AC141F48051A5
:105C30005837DFF874E0CDE900C1CDE902E7294625
:105C40000FF0B8FE05002AD002F06EFF1022314698
:105C500000900FF039FD00981C2214496030FCF7C9
:105C6000E7FF0099012081F85500601C00D0012059
:105C700081F88000002C00DC082424B20C8700206E
:105C800048874863641C684602F098FF214628460E
:105C900019F01DFA18B928460FF070FF002504B05E
:105CA0002846BDE8F0810000ED5A000844080020B5
:105CB0000148806870470000440800202DE9FC413D
:105CC00015460E0022D0002820D002F02DFF00271C
:105CD00001903770406BB0B102F026FF009006F0E3
:105CE00049FD0146009805F0CBFC0446681E84423D
:105CF00000DD0446224630460099FCF712FF684654
:105D000002F05CFF375501A802F058FFBDE8FC81A6
:105D100038B5002430B102F007FF0090846C68466B
:105D200002F04CFF204638BDF8B515460C4606007B
:105D30000ED002F0F9FE009038B1022C05D200EB33
:105D400084004567304610F0CEFB684602F036FF0F
:105D5000F8BD10B5040006D000F095F92046BDE866
:105D6000104010F0C0BB10BD2DE9F04186B00C46CC
:105D7000060050D002F0D8FE0090406B98B302F0BD
:105D8000D3FE03900098806E05F0DEF98046304621
:105D900010F0FBF80746039804F0B1FB05460098A5
:105DA00090F8601001F00301012916D002290DD0EE
:105DB000416EC06A00680844241A641E039806F005
:105DC000D9FC0146002C0FDA002115E0781B401C9D
:105DD00000EBD070A4EB6004F0E7406E791B081A6A
:105DE000241A641CEAE713E0AC4205DC02462146B3
:105DF000039806F05FFC0146304600F044F903A822
:105E000002F0DCFE404605F09FF9304610F06BFBD7
:105E1000684602F0D3FE06B0BDE8F0812DE9F843F4
:105E20001D46DDE9084916460F465FEA000841D0E5
:105E300002F07AFE00903C301F49C1611F490162A7
:105E40000021C0E90371C0E90065047280F81A906E
:105E50000121017690F84470684602F0AFFE87B1E8
:105E6000284618F0B4F80546304618F0B0F80CB1E2
:105E7000401C6D1C854200DD28460146404600F06E
:105E800031F840461DF088FF404602F04DFE00907C
:105E900000F0E4F80A490978884205D10098C16CFD
:105EA0004046491C00F0EFF8684602F087FE404685
:105EB00010F019FBBDE8F883997A0108993D0208B2
:105EC0008806002038B50C4605000AD002F02CFEEA
:105ED000009018B18466284610F005FB684602F071
:105EE0006DFE38BD7CB50C4606002ED002F01CFEBF
:105EF0000090B0F93810458FA14223D012DD406BDD
:105F000080B102F011FE019006F034FCA04206DDE3
:105F10002146019805F0B4FB019A0021115401A813
:105F200002F04CFE684602F049FE611B491C3046F7
:105F300019F0CDF8304602F0F7FD009004873046A6
:105F400010F0D1FA684602F039FE7CBD2DE9FC471D
:105F500088465FEA00094FF0000555D002F0E4FDE5
:105F60000090B0F93860446B684602F027FE0027C5
:105F7000B8F1000F3ED04CB1204602F0D5FD0190A3
:105F8000FCF7B0FD451C01A802F018FE404606F0E3
:105F9000F1FB0446B04200DD34462146404605F0A0
:105FA0006FFB461C711B484619F08DFB08B3484631
:105FB00002F0BAFD0090406B02F0B6FD3246414659
:105FC0000190FCF7AEFD0198304400F8017C009888
:105FD000C464B0F938108C4205D190F854100129EE
:105FE00001D1641EC464684602F0E8FD01A802F015
:105FF000E5FD06E00098343002F0F6FC0098478793
:10600000C764484610F06FFABDE8FC8738B50C4607
:1060100005000AD002F088FD009018B104662846F9
:1060200010F061FA684602F0C9FD38BDF8B51546B2
:106030000C4606000ED002F077FD009038B1022C1D
:1060400005D200EB8400C566304610F04CFA684675
:1060500002F0B4FDF8BD00221DF042BC38B5044684
:10606000406B002568B102F05FFD00900546E16CD1
:1060700005F006FB284405F0BDFA0546684602F027
:106080009DFD284638BD1CB50C4602F04DFD009024
:10609000406BF0B102F048FD019006F06BFB0099F7
:1060A00091F8542002B10122002C00DA002484422D
:1060B00000DD0446B1F93800801AA04200DA044637
:1060C000C86CA04200D0CC640020086501A802F092
:1060D00075FD684602F072FD1CBD000010B500247D
:1060E00000E0641C26488442FBD30121254801F0CE
:1060F00003FFA0BB0BF028FE234908700846007878
:106100002A2804D121480BF0EFFC1F4908701E48D3
:1061100000782A2807D11D49B1F8421008040CF074
:1061200099FB19490870184800782A2805D14FF4BE
:1061300000600BF075FC14490870134800782A2899
:1061400004D100200CF0A0FB0F4908700E48007825
:106150002A280BD10E49002023F0B0FA06E0FFE711
:106160000BF0DAF90021084623F0A8FA01200949CA
:10617000087000F051F8062009F02EFF10BD000055
:10618000809698000018014056010020140D002050
:10619000580D00205D03002010B51A48007818BB88
:1061A000002400E0641C18488442FBD3BE2009F0A0
:1061B000A9F9042009F082F9002009F07FF90120F3
:1061C00009F07CF9F02009F079F9002009F076F95E
:1061D000002009F073F900200C4908700C49087080
:1061E00001200849087005E0002400E0641C09480B
:1061F0008442FBD3042000F00FF8082009F0ECFEE5
:1062000010BD00005701002080841E0058010020AE
:1062100059010020400D030010B50446200D000573
:1062200001D104B103E0FC2102A021F0A6FC0E483C
:10623000046010BD2E2E5C53544D333246313078FD
:106240005F5374645065726970685F447269766503
:10625000725C7372635C73746D3332663130785F75
:10626000657874692E6300001404014070B504461B
:106270000025207910B12079042800D103E06A219B
:1062800035A021F07AFC6079082805D060790C28C7
:1062900002D06079102800D103E06B212EA021F0FC
:1062A0006CFC2068000D000502D1206800B103E0FD
:1062B0006C2129A021F061FCA07910B1A0790128FE
:1062C00000D103E06D2124A021F057FC2F4DA079CF
:1062D00090B3284600682168884329460860081D55
:1062E000006821688843291D0860207905442868D2
:1062F00021680843286025480830006821688843E1
:10630000224908310860081D0068216888431F4938
:106310000C310860607910280FD1081F00682168CF
:1063200008431A4908310860081D006821680843BD
:1063300016490C3108600EE007E0144D6079054401
:10634000286821680843286005E02079054428680A
:1063500021688843286070BD2E2E5C53544D333223
:10636000463130785F5374645065726970685F4479
:1063700072697665725C7372635C73746D333266D6
:106380003130785F657874692E6300000004014045
:106390002DE9F04389B0984615460F4606004FF0A8
:1063A000000429D000F006FA0446304600F0D2F985
:1063B000814603A9304600F05AFBF80706D0BDF924
:1063C0001C00001B401B401C822109E0B80700286C
:1063D000BDF91800284402DA40F2022100E002214F
:1063E0000096CDE9018123461A464946FCF70EFE88
:1063F00004460021FCF7BCFF09B02046BDE8F0834D
:1064000010B50523FFF7C4FF0446054A0021FCF739
:10641000CFFF0449204610F029FA204610BD0000A5
:10642000A9950108A15702082DE9F04745680446DF
:106430008EB00026284602F077FB00905C30B0F862
:1064400020A0D0F80C90D0F82480C76A006800B172
:106450000668684602F0B2FB05E079682046884786
:1064600000283DD13F68002FF7D12068142844D080
:1064700009DCA0F10B00072839D2DFE800F0BE39B3
:1064800089B434B4110020287ED004DC17283ED013
:106490001E282CD14BE026283CD02A2827D110E0FA
:1064A0002846E66802F040FB0190717A39B9317AEA
:1064B000012904D130F87C1F41F48071018001A8CA
:1064C0008FE0284602F030FB0090E16811B1C0F87F
:1064D000841002E0D0F88400E060684602F06EFBB1
:1064E0000EB0BDE8F087002E7DD02846B0477AE098
:1064F000214628461AF04CFFF2E705A9284600F08D
:10650000B6FAE0680699016007994160E8E7C4F8C7
:106510000C90E5E7E0680228E2D10C95E0680D9068
:1065200027200A900AA9A06811F0DAF8D8E7E068F5
:10653000012804D00021284600F0AFF9D0E74046FA
:1065400010F033F858B1404610F05CFA40460FF0B6
:1065500001FF88B1012140460EF03BFF0CE04846A8
:1065600010F09EFA8046284602F0DEFA0090C0F84D
:106570008080684602F022FB0121284600F08DF958
:10658000B8F1000FACD100E00EE00020E060A7E71A
:106590005FEA0A7027D4E068C06820B3007A10B3BD
:1065A000284610F02FFA1EE0E668E6B1294670682A
:1065B00010F065FE20B1012128461CF003FC12E01A
:1065C000002128461CF0FEFB2946306810F046FEEC
:1065D00048B1284602F0A8FA03903168C0F880104C
:1065E00003A802F0EBFA214628460EF068FE0028C8
:1065F0008CD020460FF08EFA72E7284602F094FA0B
:106600000090703002F0F0F96846EAE72DE9F043B7
:1066100087B00DF138088146B8E8F1104FF0000856
:10662000CDF818808DE8F110484600F023F807B047
:10663000BDE8F083F0B587B0B0F908400DF10C0C5F
:106640000C9E87694568ACE8F000448A0025CDE9D6
:1066500000150294B0F90C10B0F91050B0F90E40CA
:10666000B0F90A00194410442B46224600F002F803
:1066700007B0F0BD2DE9F0478AB00DF14C0CDDE913
:106680001784BCE86006129F45F480556034DFF83B
:10669000B8C0CDE902C4CDE900750FF08BF9040054
:1066A0004DD002F041FA3022494604900FF00CF828
:1066B0000498282225493430FCF7BAFA0498234F6D
:1066C0005C30083FC0F808800684002646620661F8
:1066D000C6627968016004A802F070FA05A9204634
:1066E00000F0C5F91A4841F2827103960094CDE991
:1066F0000110BDF91E00BDF91A10BDF91C20431A86
:10670000BDF918005B1C121A521C0FF053F9064613
:106710007868416820468847204602F005FA0490D0
:10672000866604A802F04AFA42F20400054202D149
:1067300020460FF087FA5146204600F02CF90AB0A7
:106740002046BDE8F08700002964000868080020A2
:106750007D6D000838B505004FF000040CD002F044
:10676000E3F90090C06D00218068026828469047D8
:106770000446684602F022FA204638BDF8B50E46B7
:1067800005004FF000040CD002F0CEF90090C06D6F
:10679000314680680268284690470446684602F001
:1067A0000DFA2046F8BD000001480068704700005F
:1067B0006808002030B587B005004FF000040ED007
:1067C00001A900F054F9284602F0AEF90090B0F9A2
:1067D0005440684602F0F2F90CB9BDF9044007B024
:1067E000204630BD30B504468BB0006802F09CF9FD
:1067F000009090F87C10246A006FC1F3C00508B1C6
:1068000002F092F90690E068029020690390A08857
:10681000401EADF81000E089ADF812002089401C40
:10682000ADF81400608AADF81600BDF80800401CF1
:10683000ADF80800BDF80A00401CADF80A00BDF82C
:106840000C00401EADF80C000098406B04F07CFC7E
:10685000009808AA02A9B0F95A30069805F0D0F8B5
:10686000009800EB8500806B07F060FA009800EB61
:106870008500006C07F092FA08AB02AA04A90698FA
:106880000EF056FE684602F099F9069810B106A877
:1068900002F094F90BB0002030BD002801D01CF0AC
:1068A00091BA7047F8B515460C4606000DD002F0B7
:1068B0003BF90090022C05D200EB84008563304642
:1068C0000FF011FE684602F079F9F8BD38B50C46B4
:1068D00000280CD002F028F90090816CA14203D06E
:1068E0008464806E0FF0FFFD684602F067F938BDE2
:1068F0002DE9FC410D46070028D002F015F9019062
:10690000C16D8C6800F01AF980460198456301A8B2
:1069100002F054F922680121384690470646226861
:1069200003213846904705462268002138469047A3
:106930000446384600F0EBF92B46324641463846CD
:10694000009400F073F938460FF0CDFDBDE8FC81EE
:1069500038B50C4600280ED002F0E6F8009030F86A
:106960007C1F14B141F0100101E021F01001018001
:10697000684602F023F938BD38B50D46040009D049
:1069800002F0D2F800900566684602F017F920463A
:106990000FF0A9FD38BD7CB50D46040019D002F0FA
:1069A000C3F80090006F0190684602F007F929468D
:1069B00001A806F05FF800280BD0204602F0B4F8DA
:1069C000009001990167684602F0F8F820460FF040
:1069D0008AFD7CBD38B50C4605000ED002F0A4F847
:1069E0000090B0F95A10A14204D0A0F85A402846AD
:1069F0000FF079FD684602F0E1F838BD2DE9FC475B
:106A00000D465FEA00094FF000042DD002F08CF82B
:106A10000190B0F95440A54223D000F08FF8804691
:106A200001980121A0F85450C06D856848462A6835
:106A3000904707462A6803214846904706462A6839
:106A40000021484690470546484600F060F9334625
:106A50003A4641464846009500F0E8F848460FF0AF
:106A600042FD01A802F0AAF82046BDE8FC872DE906
:106A7000F34F85B000270C46B846059802F054F84D
:106A80000090C06D0121856805982A68904782466C
:106A90002A6803210598904704902A6802210598E6
:106AA000904703902A680021059890470646009871
:106AB00010F081FA8346009810F084FA814600981D
:106AC00090F83210890601D5B0F9588000F036F8F8
:106AD00005460098C06E10B10FF068FA0746258091
:106AE0006780A4F804A0049AABEB020006EB08024E
:106AF000401E2A4420813A44E280039BA9EB030212
:106B0000521E6281A4F80CA020827019E681401EFA
:106B10006082684602F052F8B4F90C000190B4F9B2
:106B20001000029002AA01A9059800F039F8019816
:106B3000A0810298208207B0BDE8F08F10B5014611
:106B4000002091F83220920607D5B1F954000028B0
:106B500003D1486B03F03CFD801C10BD70B58AB0BA
:106B60000C46054601F0E0FF0990C06D866809A853
:106B700002F024F8009534B1012C06D0022C0BD081
:106B8000032C04D10AE0182000E01620019071685F
:106B9000684688470AB070BD1520F7E71720F5E76B
:106BA0002DE9FC4790468946044601F0BDFF009060
:106BB000C16D056868468E6802F000F832680021F1
:106BC00020469047064620460FF0D2F82F14044680
:106BD0002DB227E001F0A8FF0190B0F90010B0F944
:106BE0000420B0F90230491B521BDB1BB34212D107
:106BF00090F82800000607D5D8F8000088420ADB84
:106C0000491EC8F8001006E0D9F80000904202DCE6
:106C1000521CC9F8002001A801F0D0FF20460FF057
:106C20003FF90446002CD5D1BDE8FC872DE9FF4F84
:106C300083B00E460746DDF8409001F075FF0190E5
:106C4000C16D8D68FFF77AFF044601A801F0B6FF19
:106C50002A6801213846904783462A68032138462E
:106C6000904782462A680021384690470546B4423C
:106C700007D105998B4504D106998A4501D14D4527
:106C800042D0A41B0026B04638460FF071F839E018
:106C900001F04AFF0090806A010602D54FEA805059
:106CA00002E0810528D50006002825DB24B1224614
:106CB000114638460FF015FD009890F828000006A0
:106CC0000AD50698A5EB0902A0EB0A0004FB160101
:106CD000761C38460FF0C5FC0098008D80050BD55A
:106CE0000599A5EB0902ABEB010004FB080108F1D3
:106CF000010838460FF0B5FC684601F05FFF3846E2
:106D00000FF0CEF80700C3D107B0BDE8F08F70B523
:106D100086B0064601F008FF0590D0E91A4505A89F
:106D200001F04CFF54EA050026D069463046FFF7D3
:106D30009EFEACB1BDF90620BDF9041020460FF04F
:106D400065FCBDF90A00BDF90610421ABDF908003C
:106D5000BDF90410521C411A491C20460FF001FFD6
:106D6000002D09D0BDF90600BDF90210421ABDF987
:106D7000041028460FF04AFC06B070BD2DE9F04320
:106D80000446406885B006460FF091F8814601F050
:106D9000CBFE0090D0F88080876C456E684601F08D
:106DA0000DFF2068172859D008DC0E2837D00F288F
:106DB0000BD0142852D015283AD14FE01E2818D0F5
:106DC0001F2827D0222833D146E06FF07040874239
:106DD00004D0384606F0AAFF02F09AF9002D12D02E
:106DE000D4E902122068CDE90106CDE9031201A819
:106DF00022E0E068002806D05FEA080006D0B0452F
:106E000004D00FF0FFFD05B0BDE8F08330460FF071
:106E100047FE16E0214648460EF051FAF3E7E068D7
:106E20004168002904DD00680928EFD00A2805D050
:106E3000A5B12046C4F80490A847E4E730460FF017
:106E400037FE0446484601F06FFE0090C0F88040CF
:106E5000684601F0B3FED6E7E760D4E720460EF0BF
:106E600059FED0E770B504460D462CB1022C03D074
:106E7000042C01D0062C00D104E040F2DD1111A059
:106E800020F07BFE0DB1012D00D104E04FF4EF7135
:106E90000CA020F072FE55B14FF0204050F82400B5
:106EA00040F001004FF0204141F8240009E04FF08C
:106EB000204050F82400104908404FF0204141F88C
:106EC000240070BD2E2E5C53544D33324631307841
:106ED0005F5374645065726970685F447269766567
:106EE000725C7372635C73746D3332663130785FD9
:106EF00066736D632E630000FEFF0F0010B504463D
:106F0000206840B12068022805D02068042802D0FB
:106F10002068062800D103E0B321C8A020F02DFE90
:106F2000606810B16068022800D103E0B421C3A0FA
:106F300020F023FEA06828B1A068042802D0A06831
:106F4000082800D103E0B521BCA020F016FEE068BF
:106F500010B1E068102800D103E0B621B7A020F0FE
:106F60000CFE206918B12069B0F5807F00D103E0E4
:106F7000B721B2A020F001FE606918B16069B0F5D8
:106F8000004F00D103E0B821ACA020F0F6FDA069CD
:106F900018B1A069B0F5007F00D103E0B921A7A026
:106FA00020F0EBFDE06918B1E069B0F5806F00D129
:106FB00003E0BA21A1A020F0E0FD206A18B1206A08
:106FC000B0F5006F00D103E0BB219CA020F0D5FDFF
:106FD000606A18B1606AB0F5805F00D103E0BC213F
:106FE00096A020F0CAFDA06A18B1A06AB0F5005FB3
:106FF00000D103E0BD2191A020F0BFFDE06A18B1EF
:10700000E06AB0F5804F00D103E0BE218BA020F0F4
:10701000B4FD206B18B1206BB0F5002F00D103E058
:10702000BF2186A020F0A9FD606B00680F2800D862
:1070300003E0C02181A020F0A0FD606B40680F2814
:1070400000D803E0C1217DA020F097FD606B80682F
:1070500020B1606B8068FF2800D803E0C22177A0D0
:1070600020F08BFD606BC0680F2800D803E0C321BF
:1070700072A020F082FD606B00690F2800D803E049
:10708000C4216EA020F079FD606B40690F2800D804
:1070900003E0C52169A020F070FD606B806970B1CC
:1070A000606B8069B0F1805F09D0606B8069B0F17E
:1070B000005F04D0606B8069B0F1405F00D103E0F5
:1070C000C6215EA020F059FDD4E901010843E16822
:1070D00008432169084361690843A1690843E169DC
:1070E0000843216A0843616A0843A16A0843E16AC8
:1070F0000843216B08434FF02042216842F82100E9
:10710000A068082808D11146206851F8200040F0F6
:107110004000216842F82100606B0068616B49689B
:1071200040EA0110616B896840EA0120616B89893E
:1071300040EA0140616B098A40EA0150616B097DB8
:1071400040EA0160616B896908432168491C4FF07E
:10715000204242F82100E06AB0F5804F63D1A06B75
:1071600000680F2800D803E0EA2134A020F005FDD4
:10717000A06B40680F2800D803E0EB212FA020F07F
:10718000FCFCA06B806820B1A06B8068FF2800D851
:1071900003E0EC2129A020F0F0FCA06B00690F288F
:1071A00000D803E0ED2125A020F0E7FCA06B4069AA
:1071B0000F2800D803E0EE2120A020F0DEFCA06B19
:1071C000806970B1A06B8069B0F1805F09D0A06B5D
:1071D0008069B0F1005F04D0A06B8069B0F1405FBE
:1071E00000D103E0EF2115A020F0C7FCA06B0068E0
:1071F000A16B496840EA0110A16B896840EA01204F
:10720000A16B098A40EA0150A16B097D40EA016047
:10721000A16B896908434FF02042216802EB81018C
:10722000C1F8040108E06FF070404FF0204221687F
:1072300002EB8101C1F8040110BD00002E2E5C5349
:10724000544D3332463130785F53746450657269FF
:1072500070685F4472697665725C7372635C7374A4
:107260006D3332663130785F66736D632E63000074
:107270002DE9FC4107460D4600262A2400200090F7
:10728000019008205B490860102048604020886019
:107290000020C8604FF48060086108460AF024FBB3
:1072A0001020FCF7C1FF04462A2C02D02046BDE87E
:1072B000FC815148008800044E490860372048602E
:1072C000402088600020C8604FF480600861084654
:1072D0000AF00AFB3720FCF7A7FF04462A2C01D04E
:1072E0002046E4E7454846490860082048603020C9
:1072F00088600220C86000200861012048610846BB
:107300000AF07AF800203B490860332048604020AA
:1073100088600020C8604FF48060086108460AF069
:10732000E3FA3320FCF780FF04462A2C01D02046E4
:10733000BDE709E04FF400100AF006F920B10AF0A9
:10734000CDFA4DF82600761C2E48406B40F22A619B
:107350000842EFD008200AF0F7F828B1082009F019
:107360009BFF04242046A2E702200AF0EDF828B192
:10737000022009F091FF0224204698E720200AF01D
:10738000E3F828B1202009F087FF062420468EE785
:107390004FF400700AF0D8F830B14FF4007009F0E3
:1073A0007BFF0724204682E740F2FF5009F074FF7C
:1073B00000980006009901F47F4140EA01200099FD
:1073C00001F47F0140EA1120009940EA11606860F1
:1073D00001980006019901F47F4140EA01200199DA
:1073E00001F47F0140EA1120019940EA1160286010
:1073F00020465CE728BE002028060020FFFF0F0083
:107400003CBE00200080014010B5024600BF1B4B6F
:10741000DB6813F0010FFAD1184BDB6813F0200F73
:1074200002D02023154CE360144B1B6943F48053B6
:10743000124C236123461B6943F0020323610020A1
:1074400013E002EBC0230D4C636123461B6943F03C
:107450004003236100BF094BDB6803F02003202BAE
:10746000F9D1064CE360431CD8B28842E9DB034BF8
:107470001B6923F00203014C236110BD0020024070
:1074800030B5034600BF194CE46814F0010FFAD17F
:10749000164CE46814F0200F02D02024134DEC6049
:1074A000124C246944F48054104D2C612C462469FC
:1074B00044F001042C6100200DE033F8104021F865
:1074C000104000BF094CE46804F02004202CF9D1DE
:1074D000064DEC60401CB0EB520FEED3034C246918
:1074E00024F00104014D2C6130BD00000020024059
:1074F00002480349486003484860704723016745D4
:1075000000200240AB89EFCD10B504460A280FD009
:107510000D2C11D009480068C069016820468847D1
:1075200007480168002907D02046BDE810400847F9
:10753000BDE8104001F0BCBF10BD00009406002063
:10754000BC0600202DE9FF5F8346DDE90E45984625
:1075500091468A4604F5B47405F5B4754FF0FF36CC
:1075600001274FF4B47003E0A4F5B474A5F5B47525
:107570008442F9DA002D65DD5A2C11DA002C00DA8C
:1075800000245A2D01DA284600E05A20CDE90040B7
:10759000CDE9027643464A465146584612F05CF819
:1075A0005A3D5A3C002D4DDD5A2C14DA002C00DADD
:1075B00000245A2D01DA284600E05A20C4F15A016D
:1075C000C0F15A008DE8430043464A4651465846AA
:1075D000039612F041F85A3D5A3C002D32DD5A2CE8
:1075E00012DA002C00DA00245A2D01DA284600E0D5
:1075F0005A200DF1040C0094ACE8C10043464A4601
:107600005146584612F028F85A3D5A3C002D19DDD3
:107610005A2C14DA002C00DA00245A2D01DA2846FC
:1076200000E05A20C4F15A01C0F15A008DE88300ED
:1076300043464A4651465846039712F00DF85A3DC4
:107640005A3C97E7BDE8FF9F2DE9F0430446C56823
:1076500087B090468946002003F073FD064625B1A9
:10766000287910B146F0020001E026F0020003F094
:1076700068FD2069012558B1D4E902128DE8260081
:10768000039563882288046841464846A0471EE067
:10769000124F134B214638681B68427CE0689847BC
:1076A00030B9E088012801D0002001E03868806B03
:1076B000A288E388A1680095CDE90410CDE90232E3
:1076C0000195638822884146484605F0FBFE07B0D5
:1076D0003046BDE8F04303F034BD000094060020BE
:1076E0008C0600202DE9F0478146884640F2C320F1
:1076F00050434FF47A7190FBF1F502FB02F002EB7C
:10770000D27100EB61066D1C1746002341464846C6
:10771000FEF71EF8012413E004FB04F007FB07004A
:10772000B04206DD3B46224641464846FEF710F889
:107730007F1E3B46224641464846FEF709F8641C38
:10774000AC42E9DDBDE8F0871CB50024019401AC32
:10775000009400F0E7F81CBD2DE9FF4F83B081468F
:1077600006988A46A0EB0A08109E00200090A2EB23
:1077700009043568934654EA080018D02046FBF700
:1077800050FB07464046FBF74CFB87420BDA20468E
:10779000444680464846D14682465846DDF818B0F1
:1077A000069001200090002C07DD204606E007B07F
:1077B0004846BDE8F04F00F03BB96042A0420AD015
:1077C0004846D9466442C8F1000883464FF0FF3767
:1077D000DDF818A000E001275148B8F1000F11D0E2
:1077E00004EBD4714FEA610B01DACBF1000B4C488A
:1077F0000068807E88B3002F02DA30682044306051
:1078000000257BE000990029016821D0897E11B113
:107810000027804615E007B05A4649465046BDE865
:10782000F04F05F0B3BF28466D1C1BF037FC38B98C
:10783000D8F8000009EB0701C06E42685046904737
:107840007F1CA742EFDD6D1E356007B0BDE8F08FED
:107850008A7E1AB10027804617E019E0C86E5A46A2
:107860005146036807B04846BDE8F04F1847284620
:107870006D1C1BF013FC38B9D8F8001009EB070099
:10788000C96E4A68514690477F1CA742EFDDDAE790
:1078900000250FE008FB05B090FBF4F101EB0A00B6
:1078A000009951B11E4A09EB05011268D26E526867
:1078B00090476D1CA542EDDDC7E7194909EB0503AB
:1078C0000968C96E4A6801461846F1E708FB05B029
:1078D00090FBF4F101EB0A0001903068384430600D
:1078E0001BF0DCFB48B9009890B10D4809EB05018D
:1078F0000068C06E4268019890476D1CA542E5DDA6
:107900003068002F01DA20443060C01B30609CE7F3
:10791000034909EB05000968C96E4A680199EBE75C
:10792000940600202DE9FF470F4640491646804641
:1079300009680C981D460A7E012A1CD0A8EB060097
:10794000791B50EA01031CD0A2F101091CF086FF4B
:1079500000F58060824605F0B5F900FB09F4504659
:1079600005F0B4F900FB09F1002C0CDAC4F5007045
:10797000801240420AE00090324639464046FFF706
:10798000EBFEBDE8FF8704F50074A012002904DABD
:10799000C1F5007189124C4202E001F500718C12B0
:1079A000002804DD411C01EBD171491003E000EB1C
:1079B000D0714910401E00EBD0704210002C04DD45
:1079C000601C00EBD070401003E004EBD47040105A
:1079D000641E04EBD47308EB0104ADF800403C18BE
:1079E000ADF80240A8EB02045B10B21AADF80440F7
:1079F000ADF808203144FC1AEA1AADF80C102844FE
:107A0000ADF80A20ADF80E000023ADF806401A4686
:107A10000421684600F07AF83946404614F048FBE5
:107A20002946304614F044FBABE7000094060020E2
:107A3000064A13681A7E012A05D0521E02EBD27242
:107A4000521000F005B8DA6E526810479406002014
:107A50002DE9F05F0646884640F2C32050434FF4BC
:107A60007A7190FBF1F702FB02F002EBD27100EBAE
:107A7000610B254914467F1C09683244301BC96ECE
:107A80000B684146984701253AE000BF05FB05F029
:107A900004FB040159451CDDBC4219DD1A4B06EB01
:107AA000050AA6EB05091B68AAF1010208EB04010F
:107AB000DB6E09F101001B689847134BAAF1010224
:107AC000A8EB04011B6809F10100DB6E1B689847F5
:107AD000641E0D4806EB040AA6EB0409006808EBD7
:107AE00005015246C06E0368484698470648A8EB11
:107AF000050152460068C06E0368484698476D1CF1
:107B0000BD42C3DDBDE8F09F940600202DE9FF4F84
:107B100040F6FF740F46664283B09B4681460021C3
:107B20000BE000BF09EB8100B0F90200A04200DACF
:107B30000446B04200DD0646491CB942F2DB684803
:107B40000068406900280DD0B0F906101A46A1EB74
:107B50000B01B14200DA0E46B0F90200801AA042D1
:107B600000DD0446B5E0DFF87CA100200546CAF838
:107B7000000089E0781E854201DA6B1C00E00023DA
:107B800009EB850C09EB8302BCF90200B2F9021083
:107B9000A04245D1A14215D139F92330059A39F9CE
:107BA000251003EB020C4E4A05981268084404EBBA
:107BB0000B01D26E6045136801DA62462BE0024683
:107BC000604628E02846A4464FF000087A1E0BE0E5
:107BD00008B1401E00E0781E09EB8003B3F90230C3
:107BE000634504D108F101089045F1DB2346A34227
:107BF00049D0A3EB040239F92500A1EB040C059B45
:107C000092EA0C0209D4364A184404EB0B011268BC
:107C1000D26E13680246984735E00FF071FE32E0ED
:107C2000A14230D001DBA04203DDA0422BDBA14208
:107C300029DCE04688420ADC0346A04223DC0846F1
:107C4000A14220DBB8F900C0B2F9001008E00B46F1
:107C5000A14218DCA04216DBB2F900C0B8F900104E
:107C6000E21AA1EB0C0151430029A0EB030202DD53
:107C700001EB620102E0A1EB6201491CC01A91FB19
:107C8000F0F06044C9E76D1CBD42FFF673AF059884
:107C9000009004EB0B00019000208046054613E0A5
:107CA0001149B8F1000F31F915A009D0009901EB85
:107CB0000A0208440A490968C96E0B680199984785
:107CC00088F0010850466D1C064909688D42E7DBC3
:107CD000641CB4427FF747AF07B0BDE8F08F0000E7
:107CE00094060020F406002014E3002010B50020C4
:107CF00003F010FA6FF07F4003F010FA012003F058
:107D000053FA002003F058FA002003F05FFA002035
:107D100003F017FA0448006803F016FABDE81040B3
:107D2000002003F01DBA0000900600202DE9F05F4E
:107D300005460C464FF00009CA4600260027B0460B
:107D4000B3465948854211D0584885420ED058480C
:107D500085420BD05748854208D05748854205D008
:107D60005648854202D05648854200D103E0B221F0
:107D700054A01FF002FFE078A0B1E078042811D0F1
:107D8000E07828280ED0E07848280BD0E078142836
:107D900008D0E078102805D0E0781C2802D0E078E0
:107DA000182800D103E0B32146A01FF0E6FE002012
:107DB00010B9208800B103E0B42142A01FF0DDFE1D
:107DC000E07800F00F09E07810F0100F10D0A078E4
:107DD000012805D0A078022802D0A078032800D17D
:107DE00003E0BB2137A01FF0C8FEA07840EA0909D4
:107DF000207838B3D5F8008000261FE0012000FA73
:107E000006F7208800EA070ABA4516D1B7000F2006
:107E100000FA07FB28EA0B0809FA07F040EA08080D
:107E2000E078282803D10120B040686105E0E078BF
:107E3000482802D10120B0402861761C082EDDD3ED
:107E4000C5F800802088FF282BDDD5F804800026A7
:107E500023E006F10800012101FA00F7208800EA7A
:107E6000070ABA4518D1B7000F2000FA07FB28EA25
:107E70000B0809FA07F040EA0808E078282803D13F
:107E800006F1080081406961E078482804D106F1D4
:107E90000800012181402961761C082ED9D3C5F83C
:107EA0000480BDE8F09F000000080140000C014084
:107EB000001001400014014000180140001C014066
:107EC000002001402E2E5C53544D33324631307821
:107ED0005F5374645065726970685F447269766557
:107EE000725C7372635C73746D3332663130785FC9
:107EF0006770696F2E63000070B505460C4600265A
:107F00002848854211D0284885420ED0274885420E
:107F10000BD02748854208D02648854205D0264800
:107F2000854202D02548854200D104E04FF48F718C
:107F300023A01FF022FE012C25D0022C23D0042CDC
:107F400021D0082C1FD0102C1DD0202C1BD0402C51
:107F500019D0802C17D0B4F5807F14D0B4F5007FF1
:107F600011D0B4F5806F0ED0B4F5006F0BD0B4F51E
:107F7000805F08D0B4F5005F05D0B4F5804F02D023
:107F8000B4F5004F00D104E040F21F110CA01FF027
:107F9000F4FDA868204201D0012600E0002630460A
:107FA00070BD000000080140000C014000100140BD
:107FB0000014014000180140001C01400020014055
:107FC0002E2E5C53544D3332463130785F537464F7
:107FD0005065726970685F4472697665725C73722D
:107FE000635C73746D3332663130785F6770696FCC
:107FF0002E63000070B504460D461348844211D02C
:10800000124884420ED0124884420BD01148844258
:1080100008D01148844205D01048844202D010484C
:10802000844200D104E040F279110EA01FF0A5FDBA
:10803000002008B905B104E04FF4BD7109A01FF09C
:108040009CFD656170BD000000080140000C01400E
:10805000001001400014014000180140001C0140C4
:10806000002001402E2E5C53544D3332463130787F
:108070005F5374645065726970685F4472697665B5
:10808000725C7372635C73746D3332663130785F27
:108090006770696F2E63000070B504460D46134883
:1080A000844211D0124884420ED0124884420BD030
:1080B0001148844208D01148844205D010488442B7
:1080C00002D01048844200D104E040F269110EA0B1
:1080D0001FF053FD002008B905B104E04FF4B5715D
:1080E00009A01FF04AFD256170BD00000008014095
:1080F000000C014000100140001401400018014034
:10810000001C0140002001402E2E5C53544D3332A0
:10811000463130785F5374645065726970685F44AB
:1081200072697665725C7372635C73746D33326608
:108130003130785F6770696F2E63000070B50C4650
:10814000054600F015F9A8682168C16261680163FD
:10815000A1684163490707D5D0E90021C0E90012B1
:10816000D0E90221C0E90212A18981842169002994
:1081700003D001DC4FF00001016270BD2DE9F04138
:108180001E4617468846054600F0F2F8AC6868229D
:10819000414604F58470FAF74BFD2846B847284657
:1081A000B047286980688047A062BDE8F081000080
:1081B00010B5044600F0DCF8A0680E494C30114AB6
:1081C000C1650D4981650D4901660D498166002132
:1081D000C166136843660C4BC0E91E3151684167A4
:1081E00030F8261C21F0030120F8261C07494164C1
:1081F00010BD000075310208E53502083D31020866
:10820000F128020838070020932A02086D3002087E
:1082100010B5044600F0ACF8A4680C489034102166
:1082200020650B4860650B48A0650B48E0650B486E
:10823000E0600B482061206BA06654F8902920462E
:1082400090471020A0630748606410BD39AC010856
:1082500059CF0108B1820008E1830008052802080F
:1082600089400208C0A3040870B50C46054600F01A
:108270007FF80A48AA6814B1012C08D103E0084924
:108280000160084902E0084901600849416001684D
:1082900042F8B01F4068106170BD00003807002030
:1082A000A9280208092A0208D1280208552A02082A
:1082B000F8B5846815460F4694F8260080074CD51B
:1082C000D4F8FC30204698470646D4F800312A46B8
:1082D000394620469847D4F8943005461BB1002211
